:020000040020DA
:10200000581700209D2420005766200055662000A8
:10201000556620005566200055662000000000002F
:102020000000000000000000000000004B6E2000D7
:102030005566200000000000696E2000D566200073
:10204000E7662000ED662000F3662000F9662000B8
:1020500000000000DB662000E166200055662000DD
:102060005566200000000000000000000000000095
:102070000000000000000000556620000000000085
:10208000000000000000000055662000556620009A
:1020900055662000556620005566200055662000D4
:1020A00055662000556620005566200055662000C4
:1020B00055662000556620005566200055662000B4
:1020C00055662000556620005566200055662000A4
:1020D0005566200000000000000000000000000025
:1020E00000000000000000000000000000000000F0
:1020F0000000000000000000CD392000DD39200084
:1021000000000000000000000000000000000000CF
:1021100000000000000000000000000000000000BF
:1021200000000000000000000000000000000000AF
:10213000000000000000000000000000000000009F
:10214000000000000000000000000000000000008F
:10215000000000000000000000000000000000007F
:10216000000000000000000000000000000000006F
:10217000000000000000000000000000000000005F
:10218000000000000000000000000000000000004F
:10219000000000000000000000000000000000003F
:1021A000000000000000000000000000000000002F
:1021B000000000000000000000000000000000001F
:1021C000000000000000000000000000000000000F
:1021D00000000000000000000000000000000000FF
:1021E00000000000000000000000000000000000EF
:1021F00000000000000000000000000000000000DF
:1022000000000000000000000000000000000000CE
:1022100000000000000000000000000000000000BE
:1022200000000000000000000000000000000000AE
:10223000000000000000000000000000000000009E
:10224000000000000000000000000000000000008E
:10225000000000000000000000000000000000007E
:10226000000000000000000000000000000000006E
:1022700055662000AD382000D13820003D2F2000C9
:10228000293B20007D2A2000556620000000000028
:1022900083292DE9F74F054602D1694801F094FCE6
:1022A0002C88002C41D040F279139C4240F0BD8034
:1022B000644C237873B1042000F0DAF902F0BCFE1C
:1022C0000621614802F0C8FE604802F0E5FC0420E7
:1022D00000F0D6F95E4F3B7873B1072000F0C8F9E3
:1022E00002F0AAFE48215B4802F0B6FE574802F011
:1022F000D3FC072000F0C4F923787BB1564C574833
:1023000001F062FC0026A046DFF8549198F80830EE
:1023100002349E4251DB534801F056FC3B78002BBF
:1023200055D1514804F06EFA40E0504802F0D2F91D
:102330004F4B0B21DE6A0120B04707210620B04732
:1023400023464FF4C0714B4A4B4802F06BF82346CA
:102350004FF44071494A4A4802F064F8494A8121E1
:102360003A4802F087FC02F067FE0621464802F078
:1023700073FE364802F090FC0122374B1A72434A32
:1023800012881A8002F0F2FA4FF6FF734001B0FB98
:10239000F3F003F045FE28A3D3E9002303F004FD86
:1023A00003F0B8FE0146304804F023FA40F27913F6
:1023B00001202B8003B0BDE8F08F3146484614F869
:1023C000013C14F8022C01F0FFFB01369EE7214C82
:1023D0002F4894F8461001F0F7FB0026A046DFF8DE
:1023E000B490DFF8B4A0DFF87CB098F846309E4295
:1023F00097DA237A217848466278013B01F0E4FBC2
:1024000027460121237A994205DB584601F0DCFB7F
:1024100001360A34E9E7FB78504617F8022F01919C
:1024200001F0D2FB01990131ECE7002303202B805E
:10243000C0E700BFAFF300809A9999999999394004
:10244000717620001001002082752000B80600205F
:10245000520F0020C40D00200C0E002091762000A9
:10246000A3762000A076200030070020EC0000209A
:10247000C8722000ED5A200010070020395B2000B0
:10248000F0060020E40000208B762000900700205A
:10249000BC762000E476200004772000FF22002490
:1024A00008B5094B0948C3F8B420094A636E0949C5
:1024B000121A98470848094A2146236E121A98476B
:1024C00000F00EF8FEE700BF00200D4040000020A5
:1024D00011010020B477200018010020530F0020C4
:1024E00073B500F011FC00F0CBFC00F027FC00F00D
:1024F00053FA01F007FB04F094F900F0B9FC00F086
:10250000ADF8012004F0AAF802F0EAF800F0E8FBC8
:10251000002000F00BFB012000F008FB00203D49EB
:1025200000F0C8FB02F010FA62B6042004F096F83E
:10253000394804F006F9394804F003F900F0CAF903
:10254000002002F021FA01F0D9F90021344802F00C
:1025500053F901F031FF04F0ADF800F013FD00F085
:102560002FFD02F08DFC0821684601F0F1FA2D4D97
:10257000BDF806402C482C8001F026FB2B4E297814
:102580002B4801F021FB69782A4801F01DFBF56A10
:102590004AF6CD310220A84761BA89B20320A84784
:1025A0001A210120A84708226946736B0B2098471F
:1025B000214801F009FB214B186804F0C2F82048BB
:1025C00001F002FB1F4B186804F0BBF81E4801F035
:1025D000FBFA1E4B186804F0B4F800211C4802F006
:1025E0000BF91C4B01219B688120984704F000F9EE
:1025F000194804F0F3F800F079FB022004F02EF8FB
:1026000000F07AFB02F084F8C0B20028F8D101F0A3
:1026100011FAF5E7014920004A7420005C7420009B
:10262000780000209007002081742000C8722000EC
:102630009F742000A5742000AB742000AC732000B0
:10264000B2742000D0732000B9742000F873200009
:1026500098000020507220003474200008B500F06B
:10266000E1F80022014B1A7008BD00BF160E0020D1
:10267000024B1A781043187000F0F6B8160E0020BE
:10268000034A137823EA0000107000F0EDB800BF91
:10269000160E002018B1012804D000207047034B0B
:1026A000186A7047024B1878704700BF00900D40C1
:1026B000180E002010B5094A00201378013313705A
:1026C000074B197802F070F8BDE810400549002367
:1026D000054A0968054801F0A5BE00BF180E002094
:1026E000170E002050010020B526200030010020E8
:1026F00008B50346812B08462DD0B3F5807F3ED028
:10270000802B26D101F0DEFF1E4B032118701E4BDB
:102710000020D3F8202422F00802C3F82024D3F8A4
:10272000002422F00802C3F80024D3F8042422F085
:102730000802C3F80424D3F8082442F00802C3F8BE
:102740000824042200F0AAFB032200210F4800F015
:1027500049FB01200AE00C4B0D49D3F8102430B19D
:1027600042F00802C3F8102401230B6008BD22F0D8
:102770000802C3F810240123C1F88030F6E7054BA6
:102780001960E6E7170E002000900D409927200001
:1027900000E100E05001002008B50F4804F04FF8B8
:1027A000C8B108210C4804F03EF80C4B196849B137
:1027B00000220B4B1A700B4B1B6A43B90A4A0B4899
:1027C00001F030FEBDE80840094802F07FB9074833
:1027D00001F032FEF6E708BD28010020500100207C
:1027E000180E002000900D40B5262000300100207A
:1027F00050722000094BD3F8202422F00402C3F8C1
:102800002024D3F8002442F00402C3F8002400225C
:102810001A610122024B1A70704700BF00C00D40C0
:102820001D0E002000210F4BD3F8202422F0C002FF
:10283000C3F82024D3F8002442F0C002C3F80024D7
:10284000C3F8001303F50053D3F8202422F010023C
:10285000C3F82024D3F8002442F01002C3F8002467
:102860001964704700A00D4010F0020218BFFF224B
:10287000084BC3F8002210F0040218BFFF2210F02A
:102880000100C3F8002118BFFF22034B14BF1A64D4
:102890001864704700A00D4000C00D40044BDB6978
:1028A000C3F3072013F4704F04BF1030C0B2704759
:1028B00000300D40064B5869C00910F0060F03BFE9
:1028C00000F00700C0F1020040034FF400407047E1
:1028D00000300D402DE9F047002488B0FFF7DEFFFF
:1028E000164B0646DF69236D9847E36C8046984790
:1028F0000446FFF7DFFF054600F05CFA814600F072
:1029000065FA824600F010FAAD0A07F00103A40A46
:10291000C7F34007CDE905A003934146CDF81090D9
:1029200002970195009406F00F03C6F307120448BE
:1029300001F04AF908B0BDE8F08700BF00300D4053
:10294000C77420002DE9784800F064F81049024669
:10295000D1E900BC6646584538BF0CF10106334644
:10296000C1E900230B4ED6E90001B0EB0B0461EB8B
:102970000C05A01845EB0301C6E9000101F00CFEAF
:1029800018B1BDE8784801F08DBDBDE8788800BF7A
:1029900020010020180100204FF0E023E0210B4A25
:1029A0005A610B4A82F82310002207219A611961AB
:1029B00008498B6843F001038B60074BDA600422FF
:1029C0001A6001225A600F229A63704747E801009B
:1029D00000ED00E000200D4000000340034BD3E970
:1029E0000023100A40EA0360704700BF2001002066
:1029F000044B9862DA6842F00102DA60DA68D207C2
:102A0000FCD4704700000340014B1868704700BFBA
:102A100054010020054A106C516C936C1B0443EA6E
:102A200001230343D06C43EA0060704700500D401F
:102A300010B504460E4A136DDB07FCD572B6FFF7DE
:102A4000E9FF231A062BD8BFC41D094B220EDA64F6
:102A5000C4F307429A64C4F307225A64E2B21A64C8
:102A600062B64FF40032034B1C60034B1A6110BD79
:102A700000500D405401002000E100E008B500F0D6
:102A8000C5FF0022064B1A604FF40032054BC3F815
:102A90009021C3F89020BDE8084001F0D1BE00BFEE
:102AA0005401002000E100E0064B9B691B075FBF5B
:102AB000054B986980F00800C0F3C00048BF0020B3
:102AC000704700BF00C0004000D000402C22154BD2
:102AD00070B502FB00334FF6BF72DC680546236C0D
:102AE000626413F050020DD00F4EA369DB0600D5CF
:102AF00070BD56F825301BB12068C0B29847F4E786
:102B00002368F2E713F4D06FF2D04FF440732363DD
:102B1000FF236360E36AE262E362236B43F0010335
:102B20002363E5E7607220005801002001282DE9A9
:102B3000F74F804600F2AD802C254543564F7C1957
:102B400094F92090B9F1000FC0F2A38094F92260AB
:102B5000002EC0F29E80514800F0C2FF504B7959C0
:102B60009A6A94F921A00A439A62DA6A6168E56870
:102B70000A43DA621A6BA168F0B20A431A630023AF
:102B800022690AEBC901C5F8C83F116094F8231007
:102B9000227DCDE9000194F923B000F089F9DDE947
:102BA0000001082200F07AF9012231033D4E02FAB9
:102BB0000BFB88594FEA09394BEA0000885159F854
:102BC000061002FA0AFA4AEA010149F806105021F1
:102BD000A963A96B94F9240041F4D061A96302218F
:102BE00069634FF440712963A16900286962E16952
:102BF000A9624FF07001E96216DB002394F92510F9
:102C0000294C41EAC005C4F804510403A5598A407F
:102C10002A43A251C9B21A46C0B200F03FF9234A72
:102C2000136B43F4004313632C2303FB087393F9E2
:102C30002640002C1ADB93F82790E5B20122494682
:102C4000284693F927A000F033F901232403A25961
:102C500003FA0AF31343A35108224946284600F019
:102C60001DF9124A136B43F4804313632C2000FBBD
:102C70000877FA68136B43F001031363012297F896
:102C80002830590903F01F0302FA03F3084A42F8F7
:102C9000213003B0BDE8F08F60722000A92A200027
:102CA00000200D4020940D4000400D4000D0004019
:102CB00000E100E001289CBF014B43F82010704761
:102CC00058010020012808D82C22044B02FB0030B8
:102CD000C3689A699206FCD419607047607220003C
:102CE0000022014B1A60704700500D400822014B32
:102CF0001A60704700500D40A022024B1A6050220B
:102D00001A60704700500D40014A024B9A607047AC
:102D10000020200000ED00E0024B5868C0F3815015
:102D2000704700BF00200D4008B5FFF7F5FF024BCC
:102D300053F8200008BD00BFB872200010B5194C30
:102D40000122D4F82034062123F04003C4F82034B3
:102D5000D4F80034032023F04003C4F8003400F01A
:102D60009DF8D4F82034012223F08003C4F82034E5
:102D7000D4F80034072123F08003C4F80034032082
:102D800000F08CF8084A094B1A60094A5968114248
:102D9000FCD15A685201FCD4044A53685B01FCD54B
:102DA00010BD00BF00C00D400101020000200D4019
:102DB00000000101034B04485B6803F0070318415E
:102DC000704700BF00200D400048E801034B044855
:102DD0005B68C3F302231841704700BF00200D4019
:102DE0000048E801024B02EBC10243F822007047A1
:102DF00060010020F8B507460D460024084E06EB9A
:102E0000411647FA04F3DB07E1B204D556F8243043
:102E10000BB1284698470134082CF2D1F8BD00BF09
:102E2000600100202DE9F8430546DFF8388000F006
:102E3000EDFD0D4B2E03F75856F808404FEAC50933
:102E400024FA09F447EA04002946C0B2FFF7D2FF8A
:102E5000E4B2064BFFB204FA09F4F75046F8084012
:102E6000BDE8F88318970D4018940D401C940D4050
:102E700080220021014803F09BBB00BF60010020BD
:102E8000034B044A1A60044B803A1A60704700BF33
:102E9000E001002080400D40E4010020034B01EBE5
:102EA000C0011B6843F82120704700BFE0010020EB
:102EB000034B01EBC0011B6843F82120704700BFA2
:102EC000E40100200E2870B506460DD1134B5C6B53
:102ED00044F0020058631248D0F8F45625F03F033E
:102EE00043F00103C0F8F4360E48836823F0FF0373
:102EF0001A4311433143816003681B06FCD5C36844
:102F0000006903F0FC0343EA00230E2E18B201BF50
:102F1000034BC3F8F456014B5C6370BD00000144E1
:102F20000080084000700D40034BD3F80007B0FA52
:102F300080F04009704700BF00B008404FF40042E5
:102F4000064B10B5064CC3F89021C3F890202068BA
:102F500018B101F069FC0023236010BD00E100E01E
:102F6000E8010020064B9A6C42F002029A64DA6C87
:102F700042F00202DA641A6D42F002021A657047EA
:102F800000200D4007B50C4800F0AAFDFFF7EAFF4E
:102F90000A4B5A6D42F002025A6500220192019AD0
:102FA0000F2A06DD5A6D22F002025A6503B05DF861
:102FB00004FB019A0132F1E7292F200000200D4087
:102FC000064B9A6C22F002029A64DA6C22F002023A
:102FD000DA641A6D22F002021A65704700200D4073
:102FE0000D4BD3F84C269107FBD4D3F84C26520650
:102FF0005EBFED22C3F83828C3F83828D3F82C2652
:1030000012B1EF22C3F83828044A0120137803F0E4
:103010007F031370704700BF00800840200E00201F
:10302000044BD3F84C0600F02200A0F120035842D4
:103030005841704700800840024BD3F84C0600F01E
:103040004000704700800840054BD3F8002620B1AF
:1030500042F00102C3F80026704722F00102F9E7AE
:1030600000800840284B1870002841D0274A536838
:103070001B03FCD5264BD3F8042842F00202C3F808
:103080000428D3F8042842F00102C3F80428D3F836
:1030900004285007FBD5D3F8042822F00102C3F816
:1030A00004281B4BD3F804285107FBD4D3F8042879
:1030B00042F00202C3F80428D3F8042842F00102C7
:1030C000C3F80428D3F804285207FBD5D3F88C267C
:1030D00022F00402C3F88C26D3F8342822F004022C
:1030E000C3F834284FF400520A4BC3F890207047BD
:1030F000074AD2F88C3643F00403C2F88C364FF4FA
:103100000052044B1A6170471F0E002000200D4032
:103110000080084000E100E0094B93F90020002AFC
:103120000CDBED21074AC2F83818C2F83818E32141
:10313000C2F838181A7862F07F021A7001207047BE
:10314000200E00200080084070B5A0F10B05EBB206
:103150000F2B044614D80C4ED6F8483613F03F0314
:1031600002D0FFF73DFF012305EB85050B35C6F8BF
:103170003C560BB1FFF7D0FF044B60B21C7070BD22
:103180004FF0FF30FBE700BF008008400E01002039
:1031900038B50C46002900F09180102800F290808C
:1031A000DFE800F009111D252B434C60667D818E00
:1031B0008E86885D8A00434BD3F82C36003B18BFBF
:1031C000012323602BE005223E4BD3F83C3603F06D
:1031D0007F030B3B93FBF2F30B33DBB2F1E7394A8E
:1031E000D2F8CC15D2F8C83543EA0123E9E7354ACD
:1031F000D2F8D415D2F8D035F6E70023314A0B6067
:10320000D2F8003603F001030B60D2F824269006B2
:1032100044BF43F002030B602B4B1B780BB900201B
:103220000BE00B6843F00403CBE70020274B08605A
:103230001B78002BF3D001230B6038BD214B2449B0
:10324000D3F840260023D2B201EBC30000799042AC
:1032500002D851F83330B4E701330E2BF4D16FF0BC
:103260001703AEE7174BD3F858365BB2493BA8E7D4
:10327000144DD5F8483699060FD1FFF74DFF0123BD
:10328000D5F86426D207FBD5D5F86056493D6DB216
:103290000BB1FFF7A5FE2560C1E70023F0E70D4B5A
:1032A00093F900308DE70C4B1B7803F07F0388E720
:1032B0000B2386E71A2384E7072382E70220BCE773
:1032C0000120BAE7008008401F0E00200F010020F7
:1032D00000732000210E00201E0E002010B50B4CA4
:1032E000D4F8483699060FD1FFF716FF0123D4F81A
:1032F0006426D207FBD5D4F84C46C4F300140BB1B6
:10330000FFF76EFE204610BD0023F0E70080084066
:1033100010B50C46072865D8DFE800F0040F1A2323
:103320002C444A5E012903D1FFF7F6FE00203EE05F
:10333000002959D1FFF754FEF8E7A1F10B030F2B39
:1033400052D8C8B2FFF700FF0130EFD103202EE0C2
:10335000264BCAB2C1F30724C3F8C825C3F8CC452D
:10336000E4E7224BCAB2C1F30724C3F8D025C3F85F
:10337000D445DBE731F0070336D101F00100FFF758
:1033800063FE1A4B11F0020FD3F82426C1F380001C
:1033900014BF42F0200222F02002C3F82426FFF7D7
:1033A00061FEC3E731F001001ED1114B197010BD51
:1033B00001F118031F2B17D80D230E4A52F83310B2
:1033C0008C4206DC02EBC3031A79084BC3F8402693
:1033D000ACE7013BF2D2A9E7044BCCB24934C3F8C5
:1033E0005846A3E70120E2E70220E0E7008008401A
:1033F0000F0100200073200070B505460C46144EE6
:10340000D6F84C369B07FBD4124B93F90030002BB7
:1034100001DBFFF781FEEE23691EC6F83838C6F8D7
:103420003838A31CC6F828382144022000F080FA5E
:103430000949013C41EA0411022000F08BFA022004
:1034400000F092FA022000F0A7FA002070BD00BF41
:1034500000800840200E002002C001C070B5264B3D
:1034600093F90030002B19DBFFF7D4FA0446FFF77D
:1034700053FEC4F1FF2404F57F04F634FFF7CAFAC3
:10348000C442FBD401261D4B1B784BB91C4CD4F80D
:103490004C36990609D50224204670BD0026F2E775
:1034A000FFF71CFF0028F1D1F5E7E9230425C4F854
:1034B0003838D4F84C369A0703D4013D15F0FF058F
:1034C0000AD1D4F84C369B070AD50D4BD3F84C469D
:1034D00014F00204FAD109E00620FFF789FAE8E7C0
:1034E000EE23C4F83838C4F838380124002ED3D07D
:1034F000FFF776FDD0E700BF200E00200F0100206F
:10350000008008400B280DD1082A0DD161B1074B6E
:10351000074A083111F8010D43F8040B9342F9D121
:10352000002070470120704702207047A88508409E
:10353000C885084070B5384A0546D2F84C0610F0E8
:10354000400009D0D2F82808040606D5ED23C2F8B9
:103550003838C2F83838002070BDC0B20428F5D918
:1035600002388842F2DCC4B2032C24D1D2F82838C5
:103570002B70D2F828386B70D2F82838AB70264DF3
:10358000264BD5F82818264E493949B21970D5F876
:1035900028381806337026D589B2042001F09AFD28
:1035A0003178032001F07F0101F094FD1D4B1B7861
:1035B000FBB12046D0E729190320013900F0C0F9FA
:1035C0001949631E032041EA031100F0C3F90320E7
:1035D00000F0CAF9032000F0DFF9032000F0E8F959
:1035E0000028FAD1CBE7ED23C5F83838C5F83838CC
:1035F000B1E7D5F84C365A06DBD5D5F84C361B0664
:1036000003D50A4801F010F9D3E7ED23C5F838389F
:10361000C5F83838CDE700BF00800840210E0020F3
:103620001E0E00201F0E002002C0010C50000020C2
:103630002DE9F041294F3E7816F001064CD10125C5
:10364000274B284CC3F8A850C3F8AC50C3F8B0506F
:10365000F823C4F858360923C4F8E83715230B2299
:10366000C4F8C836204B4FF07F085A604023C4F896
:103670002436D4F8243643F02003C4F82436D52366
:10368000C4F80866C4F85086C4F84036174B18785A
:10369000FFF75AFD4FF48042154B0220C4F8948680
:1036A0001A6100F06DF91349022000F049F9032076
:1036B00000F066F90F49032000F03AF90E4B187834
:1036C000FFF7D0FC0D48314601F096F828463B78CC
:1036D0002B433B70BDE8F0810020FBE7200E00206B
:1036E00000200D400080084000600D400E010020C9
:1036F00000E100E0288808401F0E00205000002054
:1037000038B50388044653B340F20342934233D1A1
:103710001B4B1A7842BB822924D11B7873B901F064
:103720008BFC01F01DFC8021FFF704FF002805DD64
:1037300080B201F0D5FB134B1B699847124B1A78E6
:1037400052060CD500221A70104BD3F84856FFF7DA
:1037500047FCFFF76DFFAB0601D0FFF7DDFC40F241
:103760000343238001200AE01A78002AFAD0064A8F
:1037700012785006F6D5CEE700230380032038BD2B
:103780001F0E0020F8732000200E0020008008404B
:103790000B282DE9F8430D460FD1082A7CD10029CA
:1037A0007AD03E4B3E4A4D1E53F80419934205F819
:1037B000011FF9D10020BDE8F8830C286AD1042A42
:1037C0006AD1002968D0374BD3F8102822F00702BD
:1037D000C3F81028D3F8042842F00802C3F80428DC
:1037E000D3F81428D3F81818D3F81008D2B220F060
:1037F0007000C3F81008D3F82448D3F82008090251
:1038000042EA006289B224040A4304F47F04D3F834
:103810001C7842EA0408D3F81028FFB222F007020D
:1038200042F00102C3F81028D3F8042842F008023D
:10383000C3F80428D3F81448D3F81828D3F810187C
:10384000E4B221F0700141F01001C3F81018D3F870
:103850002418D3F82008120292B244EA0064090442
:10386000144301F47F010C43D3F81C185FFA81F96B
:10387000FFF7D0F8B8EB040467EB0907FF0306462F
:103880000023094AE00347EA544102F063FC361A78
:103890002E608FE701208EE702208CE7C485084068
:1038A000A4850840008008400048E80108B5054BA1
:1038B0001B7813B9044800F0B7FF0022034BC3F88C
:1038C000342808BD1F0E0020500000200080084052
:1038D000074A0848D2F82C38042B1FBF06490B783A
:1038E00043F040030B700023C2F82C3800F09CBF5B
:1038F0000080084050000020200E002010B5094C28
:1039000040220021204602F053FE0122064B5A605D
:103910004FF480429C60054B5A604FF400425A605D
:1039200010BD00BF0000002000F00F4000E100E0EB
:1039300003289EBF014B0001195070470000002072
:1039400003289EBF024B03EB00104160704700BF8D
:103950000000002003289EBF024B03EB0010816093
:10396000704700BF00000020032806D80123034A47
:1039700003FA00F0916A08439062704700F00F402C
:10398000032806D80123034A03FA00F0116A08430A
:103990001062704700F00F40032806D80123034A45
:1039A00003FA00F0516908435061704700F00F407E
:1039B00003289FBF044B03EB0010806800F0070052
:1039C00088BF0020704700BF000000204FF0FF328A
:1039D000014BC3F80425704700F00F400122014B52
:1039E000DA64704700F00F40074B5A68D102FCD4EC
:1039F0001A6822F480321A605A68D203FCD41A681A
:103A000042F400321A60704700200D4010B5084C97
:103A1000A36D99070BD063685A01FCD463685B01FE
:103A2000FCD502F049FEFFF7DFFF0023A36510BDC0
:103A300000200D4070B5264BD3F8484614F03F04E3
:103A400014D1244D55F8043B23B1984770B101348B
:103A5000052CF7D1204E337843B1FEF7D5FF04464D
:103A6000FEF7D8FF201A092800D90CB930BF26E08C
:103A70001A4B1A6822F400321A605A68D202FCD437
:103A80001A68164D42F480321A606B68DB03FCD56D
:103A9000FEF7C0FF241A092C03D8BDE87040FFF7D9
:103AA000A3BF632C0CD93378022B09D1AB6500F08E
:103AB00071FE38B1FFF798FF0022084B9A6570BD80
:103AC0000123F3E7FEF7A0FF0028F3D0CEE700BF05
:103AD00000800840EC010020220E002000200D4054
:103AE000074A10B50023144652F8041B814202D045
:103AF00011B944F8230010BD0133052BF4D1FAE7C6
:103B0000EC0100200022054B05499A650B6943F042
:103B100004030B61034B1A70704700BF00200D4077
:103B200000ED00E0220E00204FF48032064B10B56D
:103B3000064CC3F89021C3F89020206818B100F01B
:103B400073FE0023236010BD00E100E000020020AE
:103B50004FF4201270B592F82B40431E54B101F57A
:103B60002012184C2732A2421AD012F8015903F839
:103B7000015FF8E792F82A40122CF0D192F8292040
:103B80004B2AECD14C0804F520120E4D2732AA42E4
:103B90000DD1002301F5201205192732A3420BDBBA
:103BA0001323014401F8013C01F8023C70BD12F8F6
:103BB000016903F8016FEAE7D61A3678013305F890
:103BC000016BEBE7270028000FB407B504AA52F8F1
:103BD000041B0448019200F021F803B05DF804EBE7
:103BE00004B070476000002070B505460C460A4ED0
:103BF000102C07D874B122462B6868680649BDE8C6
:103C000070401847102231462B686868984710B9F1
:103C1000103CEDE7204670BDE77520002DE9F04F20
:103C20008046154600278DB00491049B1B78002B1D
:103C300000F07983049B1A781C460133002A00F0B7
:103C40006183252AF7D1049B9C4205D05DE323784C
:103C50003744002B00F067836278631C002A00F071
:103C600062830024184610F8012B19462B2A15D020
:103C700009D8202A15D0232A16D0A2F13106082E01
:103C800040D8002219E02D2A04D0302AF5D144F082
:103C9000100401E044F001040346E3E744F00604A5
:103CA000FAE744F00204F7E744F00804F4E70A21D5
:103CB000019A01FB0299A9F13002194613F8019B00
:103CC0000192A9F13002092AF1D90B782E2B36D1B5
:103CD0004A784B1CA2F13000092828D84FF0000B7D
:103CE0001A781946A2F13000092803F1010318D906
:103CF0000B786C2B6BD14B786C2B23D144F0800468
:103D0000023122E02A2A09D12B680146002B0193B7
:103D100005F10405B8BF44F00104D6E70023019380
:103D2000D3E70A2101FB0B2BABF1300BD8E72A2A92
:103D300004D1D5F800B002310435D9E719464FF067
:103D4000FF3BD5E7013144F060040B78782B0CD8A9
:103D5000572B48D8472B08D8402B00F28D80002BDA
:103D600000F0E182252B00F0D0804B1C049304F47A
:103D7000E063B3F5A06F00F0A28200F2C980B3F552
:103D8000407F00F06882B3F5806F00F02F82B3F5BA
:103D9000807F7FF44AAFBBF1000FACBF24F010046A
:103DA0004FF0010B14F4005904F0E00300F07A81A5
:103DB000402B00F0728100F2C280002B00F0708175
:103DC000202B00F0CB800026B2460023D3E0682BE6
:103DD000BBD14B78682B02D144F0200490E701312D
:103DE00044F04004B1E7583B202BBED801A252F862
:103DF00023F000BFBD3E20006B3D20006B3D200046
:103E00006B3D20006B3D20006B3D20006B3D200092
:103E10006B3D20006B3D2000E73E20006B3D200005
:103E2000F33E2000A53E2000CF3E2000C33E2000F0
:103E3000DB3E20006B3D2000A53E20006B3D2000B6
:103E40006B3D20006B3D20006B3D2000053F2000B6
:103E5000B13E2000FF3E20006B3D20006B3D200066
:103E6000F93E20006B3D2000AB3E20006B3D200062
:103E70006B3D2000B73E2000413B062B3FF675AF5F
:103E800001A252F823F000BFED3E20006B3D200060
:103E90006B3D20006B3D2000D53E2000C93E200038
:103EA000E13E200044F424545FE744F410645CE7EE
:103EB00044F4885459E744F4C85456E744F4B244EF
:103EC00053E744F4007450E744F484444DE744F469
:103ED00002444AE744F4424447E744F4813444E767
:103EE00044F4A13441E744F4C1343EE744F4E134FE
:103EF0003BE744F4A06438E744F4806435E744F4D5
:103F0000407432E744F4E0642FE744F4C0642CE7E3
:103F1000B3F5C06F07D0B3F5E06F7FF486AE2B68C2
:103F200004351F6081E60122D8F80030A649D8F890
:103F300004009847002840F0F481013775E6602BB3
:103F400000F0AE80802B7FF43EAFEA1D22F0070226
:103F50001546D2F804A055F8086B04E095F9006006
:103F600004354FEAE67ABAF1000FBFF62EAF01230F
:103F700076426AEB4A0A029304F4C053B3F5805FB9
:103F800000F0E480B3F5C05F00F0E680B3F5006FA9
:103F900000F0C6800DF12E03009300230393039BD2
:103FA00041F608029B4588BFABEB030B41F20803C7
:103FB00004EA020198BF4FF0000B994204D1BBF113
:103FC000010F38BF4FF0010B039B91425B4440F05F
:103FD000DF8056EA0A0200F0DB807C497C4A14F458
:103FE000804F4FF0020614BF8A469246B9F1000F87
:103FF0000DD0029A002A40F0CE8004F00602022A78
:1040000000F0CD80062A734A04BF0126924606EBD3
:104010000309019B4B4594BF4FF00009A3EB09092D
:1040200014F00103019304D1E20640F1BC80CB44BB
:1040300099464EB132465146D8F80030D8F80400BF
:104040009847002840F06D815C46039BDFF888A10B
:104050001F44102CD8E9003000F2AD802CB122466C
:104060005D499847002840F05C81D8F80030039AF9
:104070000099D8F8040037449847002840F051814F
:10408000019B5F44002B00F0E08049464046FFF76B
:10409000ABFD002800F0D98043E1B5F900605FE78F
:1040A0002E685DE7402B1BD007D8DBB1202B11D049
:1040B0004E46CA46CDF808905EE7602B12D0802BA2
:1040C000F6D1EA1D22F007021546D2F804A055F8F1
:1040D000086B02E02E78CA460435CDF808904BE70D
:1040E0002E88F8E72E68F6E7039805990A22002340
:1040F00002F030F8009B303203F8012D0398059947
:1041000000930A22002302F025F803900591039BF7
:10411000059A1343E8D1009A0DF12E039B1A3DE74F
:104120000DF12E030396CDF814A00093EFE700984D
:1041300003F00701303100F8011DDB0843EA427348
:104140000090D20853EA0201F1D1E4E70DF12E010B
:10415000334652460091F5E7204B14F4804F204936
:10416000524608BF194633460DF12E00009053EA1F
:104170000200D0D003F00F00DDF800C0085C1B097E
:104180000CF8010D43EA0273CDF800C01209EEE706
:104190000026B2462AE70126DFF848A037E70126C5
:1041A000DFF844A033E749464046FFF71DFD0028ED
:1041B0003FF43FAFB5E0102251469847002840F049
:1041C000B080103C45E700BFE5752000D4752000A5
:1041D000D7752000DC752000F7752000C37520001E
:1041E000B2752000DA752000127720002E680435A1
:1041F0006EB333469A469AF800200133002AF9D16B
:10420000AAEB060ABBF1000F02DBDA4528BFDA464B
:10421000019B534594BF4FF00009A3EB0A0914F02A
:10422000010405D149464046FFF7DEFC002878D15D
:1042300052463146D8F80030D8F804009847002894
:104240006FD15744002C7FF420AF4F44EDE44FF082
:10425000060A374ED6E7374B14F4804F364808BF6E
:1042600018460DF12B0300229A462968043551EABD
:1042700002061AD1BAEB030A04BF302203F8012C5C
:104280004FF0780208BF03F1FF3303F8012C4FF021
:10429000300208BF4FF0010A03F8022C2322DE1E71
:1042A00003F8032C0AF1030AB2E701F00F06865D5A
:1042B000090941EA027103F8016D1209D7E7DDF837
:1042C00004902B68B9F1010F38BF4FF0010914F0C9
:1042D000010405F104058DF8183009F1FF3605D108
:1042E00031464046FFF780FCD8B937440122D8F860
:1042F0000030D8F8040006A9984790B9002CA4D043
:104300003146C3E6049B9C420DD0049B0499E61AF7
:104310003246D8F80030D8F80400984700283FF417
:1043200096AC4FF0FF3738460DB0BDE8F08F00BFB8
:10433000DE752000C3752000B2752000F8B5038833
:1043400005461646CBB14A2B2BD188291FD11748D9
:1043500002F086FA0446C4B1231D9E421FD12146B5
:10436000124802F087FA124E636937683360A36916
:104370000BB1E0699847376007E00C4802F070FA2B
:10438000044634B901220B4B1A704A232B800120BA
:104390000AE0A168201D02F02CFA2468F1E72468E5
:1043A000D9E7002303800320F8BD00BF04020020EA
:1043B00090030020230E002010B50024054B064872
:1043C0001C7002F04AFA2146BDE81040034800F094
:1043D00013BA00BF230E0020040200206800002052
:1043E00070B50446E3610B4B049D1B78C4E905528C
:1043F0006BB1094D094B2E68201D2B6002F0F9F9B5
:104400002E602146BDE87040054802F046BAA16022
:10441000F7E700BF230E0020900300206800002073
:104420000402002013B5034C24680094FFF7D8FF62
:1044300002B010BD9003002010B5084B04461B7855
:1044400043B1043000F0B0F82146BDE81040044804
:1044500002F010BAC0E90333F6E700BF230E0020D4
:104460000402002010B50D4C236813B90C4A1360E8
:1044700010BDFEF7B3FA2268D2E900310B441B1AD3
:1044800092681AB91844064B1860F1E7D2E9001493
:104490002144091A8B4228BF0B46F1E70C02002089
:1044A00008020020014800F0BFB900BF78000020DA
:1044B0002DE9F0410388054653B1592B46D1872990
:1044C00021D1002023490B6863B918B10B6001E0CA
:1044D000204A1360592301202B80BDE8F081012080
:1044E0003346F1E7D3E902649442F8D000B10B609F
:1044F00019460B4689680029ECD0C8689042F8D16B
:1045000089689960F4E78229E4D14FF00008114FDF
:1045100000263C68002CDDD0204602F090F990B1D6
:1045200022468821E06800F03FF950B9A368E060B6
:104530002EB1B360C4F80880FFF794FFE8E73B6052
:10454000F8E7FFF7AFFF2646A468E3E70023038000
:104550000320C2E70C02002010B50446FFF7A2FFBB
:10456000E3680B4A0BB1136833B90A4B1B68E3606D
:1045700013681460A36004E0A34206D1054A1268E0
:10458000DA60BDE81040FFF76DBF9B68ECE700BF45
:104590000C02002090030020024B1868003818BF5E
:1045A000012070470C02002010B50B4A0446136826
:1045B000834208D183681360FFF754FF0023C4E9E6
:1045C000023310BD1346002BF8D09A68A242F9D1ED
:1045D000A2689A60F0E700BF0C02002038B583683B
:1045E00004460D469BB10A4804600220A07304F102
:1045F0000C0098470238012801D9832D05D12146A6
:104600002046BDE8384000F005B80123A37338BD4B
:10461000900300202DE9F8431C4F04463D6888466E
:104620002B46A34204D00BB9BDE8F8831B68F8E71A
:10463000002CF9D0164EA37BD6F8009063B100236E
:10464000A3738DB9A3683BB1444505D02A468321A5
:10465000346004F10C0098473B68A3420ED12368F4
:104660003B60C6F80090DFE7A54204D022468721D0
:10467000284602F0D0F82D68E3E71346002BF0D06F
:104680001A68A242F9D122681A60EAE7940300206E
:1046900090030020002238B50125084B1A70084B02
:1046A0001C6804B938BDE37B2BB10022822120466F
:1046B000E581FFF793FF2468F3E700BF270E002092
:1046C00094030020024B1878421C1A70704700BFF8
:1046D000250E0020014B1968FFF79CBF90030020B6
:1046E0008A22064B1A700023054A1370054A13707C
:1046F000054A1360054A1360704700BF250E00206D
:10470000240E0020260E0020940300209003002099
:104710002DE9F0411A4E33780BB1FFF7BBFF194D6D
:104720002C7894B10C221849184F0B78013C5A434D
:104730000133B81803F01F03BF5C0B702C70D0E975
:10474000018090B9124B1C6824B93378287818443A
:10475000BDE8F08133780BB1FFF79CFF204642465D
:10476000394602F058F82468EEE7812F08BF01238C
:104770004246394608BF837302F04DF8E5E700BFB3
:10478000270E0020260E0020240E002010020020FC
:1047900094030020024A034B10781B78184470479A
:1047A000260E0020270E0020F0B50B4D2C78202C73
:1047B0000FD00C26094B0A4F1B78234403F01F032C
:1047C0007343FE18C6E9012000200134F9542C700F
:1047D000F0BD0120FCE700BF260E0020240E0020C3
:1047E0001002002038B5034C256802F014F825604B
:1047F00038BD00BF9003002010B40A4609490C6878
:10480000234683420CD04BB950B1046008600121AB
:1048100010BC817383818121FFF7E4BF1B68F0E73F
:1048200010BC70479403002038B1837B013B012BFF
:104830009FBF0123014AC37313707047270E0020E6
:1048400010B5084C206858B100232360D0E901312D
:104850009847236823B1BDE810401868FEF7E8B810
:1048600010BD00BF9803002070B505880446672D71
:1048700009D0792D2FD0002D33D1FFF723FF1B4B0B
:1048800018701B4B1D601B4E194D08E00A282B6841
:104890000ED07E2B03DC5A1C2A60174AD0543046B7
:1048A00002F07BF8431CF1D16723238001201BE039
:1048B0005A1C2A600025104A2846D5540B4B1978FB
:1048C000FFF772FF0D4B2A4685211868FFF76CFF32
:1048D00018B97923E9E78529E8D10022044B1A6049
:1048E000D1E700230380032070BD00BF290F002003
:1048F0009C030020A0030020280E0020900300202D
:104900000D28014610B516D00C4C237853B90C482D
:1049100002F030F808B9012323700A48FFF784FF3A
:10492000012010BD0A28F8D1054802F023F800281C
:10493000F3D00023F0E70020F3E700BFA80E00202B
:10494000A00300208800002008B505490548802202
:1049500002F009F8BDE8084000210348FFF74CBF0A
:10496000A90E0020A003002088000020054B1A6833
:1049700042F004021A6058699B6940EA032080B241
:10498000704700BF00700D40184A136823F00C03F5
:1049900013600122164BC3F8A820D3F8A820012ADF
:1049A000FBD10822134BC3F82426E322C3F838288E
:1049B000D3F86426D207FBD50E4810220023D0F886
:1049C0009C16013A01F0010143EA01034FEA430357
:1049D0009BB2F4D1002BF0D0044A190A03F0FE0375
:1049E00051615361EF23C0F83838704700700D40B3
:1049F00000200D40008008402DE9F0410588044664
:104A0000772D20D07E2D3DD0002D4ED1FFF75AFEC0
:104A1000284E294B294FDFF8A8801870356033687D
:104A200057F823202AB9274A1370772323800120BF
:104A30003EE008F8035093680021802098473368CF
:104A400001333360EBE700231F4A1360194A1360F8
:104A5000184B1C4A1B6812789A4204DC1A4B1B68DC
:104A6000002BF0D1E1E7164AD256002A19DA134A90
:104A7000002052F82320104B1978FFF795FE28B933
:104A80007E23D3E70C4B1B788B42D0D1094B0C49CA
:104A90001A688B5C03F07F038B540B4A1368013355
:104AA0001360044A13680133D1E700230380032015
:104AB000BDE8F081AC0300202B0F00204000002057
:104AC000190E00202A0F0020A803002010B40A4B62
:104AD0000A4A197800238B4203DA52F8044BA042A9
:104AE00008D107490748CA5C62F07F02CA5410BC6B
:104AF000FFF79ABE0133EEE72A0F002040000020A6
:104B0000190E00209800002070B505460C46164688
:104B100000F00AF920462E610249BDE8704002F01B
:104B2000C1B800BF38762000014801F096BE00BF32
:104B3000B0030020014B1860704700BFB403002091
:104B4000014801F08DBE00BFB00300202DE9F04107
:104B500005460C480C46164601F082FE08B9BDE831
:104B6000F0818388A34209D18768002FF7D03346AC
:104B700022462946BC46BDE8F041604701F0A8FE48
:104B8000ECE700BFB003002070B50B4C0023616E52
:104B90000A4A04F13800FFF745FCFFF7E7FE656EAF
:104BA0000023B0FBF5F1064A01FB150104F11800E2
:104BB000BDE87040FFF736BCB8030020C54B2000AD
:104BC000DD4B2000044B5A6E196E5200914294BF87
:104BD00059665A66FFF7D8BFB803002010B500F039
:104BE0002BFA00F0BDF9002303800446FFF7A8FF6D
:104BF0002288930008B1017B51B9023398B200F0CA
:104C00006FF9238873B1BDE81040074800F044B83D
:104C1000818823445980C18801329980228001F023
:104C200057FEE5E710BD00BFB80300209DF8003037
:104C3000012B04D1024B9A6D5A66FFF7A5BF70474E
:104C4000B8030020F8B50F4616461D46064C01462F
:104C5000064A204600F00EF8C4E916762566044898
:104C6000BDE8F840FFF766BFB8030020907320004E
:104C70002D4C200070B505460C461646044AFFF739
:104C800043FF20466E610349BDE8704002F00AB858
:104C9000987320003A76200010B5044604491A2083
:104CA00000F026FA2046BDE8104001F088BE00BFA3
:104CB000900700200088064B40BA80B28840995C7B
:104CC000C2F1080201EA20201041C0B2704700BFC3
:104CD0003E762000054B10B51B689847044618B176
:104CE0008188012000F0F6F9204610BDA073200055
:104CF00038B5064B05465B6898470446A9880120ED
:104D000000F0E8F9201E18BF012038BDA073200074
:104D1000014B9B68184700BFA0732000014801F0B9
:104D20009CBD00BF2404002081800146014801F0A1
:104D3000B4BD00BF240400200146014801F09ABD23
:104D40002404002010B50446054801F089FD00B98F
:104D500010BD8388A342FBD001F0BAFDF7E700BF86
:104D600024040020F8B506460A480D46174601F00F
:104D700077FD044630B93A4629463046BDE8F8404A
:104D800001F024BEA3680BB128469847204601F0E5
:104D90009FFDEEE72804002038B5FFF79BFF05468E
:104DA000094801F05DFD044628B95DB12846BDE81B
:104DB000384001F006BE636803B19847204601F011
:104DC00087FDF0E738BD00BF2804002010B5044679
:104DD000FFF78EFF38B100F09FF8034B03482146E0
:104DE0009B689847012010BD24742000654D200069
:104DF00070B50E461546074A044600F00FF83046D7
:104E0000054901F04FFF0023A564A4F84C3084F855
:104E10004E3070BDB87320004C76200038B5044683
:104E20001546024A00F01AF8256438BDC073200008
:104E300070B504461B200D4600F066F9064902F0E5
:104E400022F838B1A3691B6823B129462046BDE882
:104E50007040184770BD00BF9007002070B5054630
:104E60000C461646044AFFF705FF2046AE6103498B
:104E7000BDE8704001F016BFC873200056762000D0
:104E8000084B10B51B689847074B5B689847074B62
:104E90005B689847064B5B689847BDE81040054B38
:104EA0005B681847C8722000F87320002474200043
:104EB000D0732000AC73200010B507490B888342E3
:104EC00008DB064C80B222880244181A08800120B0
:104ED000228010BD0020FCE79207002094070020EC
:104EE000014B1880704700BF9207002000487047B0
:104EF0002C040020014B1888704700BF9207002047
:104F0000034A044B10781B881844C0B2704700BF96
:104F10002C0F0020940700202DE9F0410C4E33881F
:104F200073B100240B4B0C4FB3F800800B4B1D7872
:104F30003D4421B2414504F1010403DB00233380E9
:104F4000BDE8F081FFF7DCFF3844435C6B54F0E7C9
:104F500094070020920700202C0400202C0F002032
:104F600008B5FFF7CDFF014B184408BD2C04002005
:104F7000F8B50C4B04461E780B4B1F88F519802D95
:104F80000DDC3246094901F09DFAFFF7E9FF344490
:104F900001463A46204601F095FA2846F8BD00251C
:104FA000FBE700BF2C0F0020920700202C040020FC
:104FB00008B5FFF7A5FF024B1B88184480B208BD57
:104FC0009207002010B50146FFF7F2FF4318802B2F
:104FD00012DC431E094A1BB21A44481C002B05DA96
:104FE000074B187801440120197010BD12F80149CF
:104FF000013B14541BB2F1E70020F6E72C0400201B
:105000002C0F002070B534220021084801F0D0FA9E
:105010000024074D074E28463146013401F030FF89
:10502000042C05F10205F6D170BD00BF9E070020DB
:1050300096070020487420000023044A1380044A85
:105040001380044A1370FFF7DDBF00BF94070020F0
:10505000920700202C0F002038B50C460546FFF7BC
:10506000EBFF802C28BF802429462246034801F00C
:1050700029FA034B20461C8038BD00BF2C040020B9
:105080009207002010B5074B03F1340253F8044B8C
:10509000934240F8044BF9D1034A13680B605368FC
:1050A0004B6010BD9E0700209607002010B5074BEF
:1050B00000F1340250F8044B904243F8044BF9D10C
:1050C0000B68034A13604B68536010BD9E070020B5
:1050D00096070020024B23F810100120704700BFF4
:1050E0009E070020014B33F8100070479E070020F8
:1050F00008B5044B1A3803EB400001F0C1FE012053
:1051000008BD00BF96070020024B1A3803EB400091
:10511000704700BF960700200149024801F0B3BE66
:10512000487420009807002008B5044801F0D3FB1C
:10513000BDE80840024801F0CEBB00BFB40000202B
:10514000A800002038B50E4801F0D5FB054650B147
:105150000C4801F0D0FB0446286030B929460848C5
:1051600001F0DDFB2546284638BDFFF701FF04F1BD
:10517000B601A4F8800004F18200FFF783FFF2E794
:10518000A8000020B400002010B5014604460748DE
:1051900001F0DBFB48B12168054801F0C0FB214666
:1051A000BDE81040014801F0BABB10BDA8000020C6
:1051B000B400002010B501460446094801F0C5FBC3
:1051C00068B12468B4F880102046FFF745FF04F169
:1051D000B60104F18200BDE81040FFF767BF10BDC3
:1051E000A8000020014BDB68184700BF2474200092
:1051F000014B5B69184700BFF8732000014B9B69A6
:10520000184700BFF8732000024BD86900B100476F
:10521000704700BFF873200070B590F829400F4B1D
:10522000042C214628BF04210124DB698C4005465B
:105230009847012838BF0120013C444305D0FFF7BF
:1052400095FBB0FBF4F303FB14042B46214605F158
:105250000800034ABDE87040FFF7E4B8F873200087
:10526000D55320002DE9F04106461B200F46FFF7DD
:105270004BFF494B05461A78484C22B901221A7057
:10528000FFF774FB208023880BB90123238021883A
:105290000A204B1C2380FFF71DFF414801F0E0FA74
:1052A0000446002847D13F4801F025FB044600286A
:1052B00068D02946201D01F0E3FD002304F12C00F5
:1052C000C4E90B30238501F0C8FA2146344801F0C7
:1052D000E4FA206B01F0F5FA072853DC324801F0BC
:1052E0000AFB0546002841D0304801F004FBA860C5
:1052F000C0B3FFF727FF686080B30920D5F80880A6
:10530000FFF7F0FE08BB082388F808300D20C8E935
:105310000067FFF7E7FE01282946206B1BD101F04B
:10532000C9FA206B01F09CFA854233D12046BDE8D2
:10533000F041FFF771BF2946201D01F0A4FD0028B0
:10534000C7D1204601F0C4FAAAE70920FFF7CAFE38
:1053500088F80800DAE701F0A0FAE2E7A968134844
:1053600001F0DDFA2946104801F0D9FA206B01F06E
:10537000A8FA38B921460A4801F07CFA21460948C2
:1053800001F0CDFA39463046BDE8F0410123042250
:1053900001F03ABFBDE8F0813D0F0020C20D0020B2
:1053A0002C050020CC000020D8000020C0000020E8
:1053B00008B5054801F08FFA044801F08CFABDE801
:1053C0000840034801F087BAD8000020C000002040
:1053D000CC00002013B5044668B1006B01F040FA20
:1053E000024640B12146054B0548DB68019302B0F7
:1053F000BDE81040184702B010BD00BFF873200090
:10540000815420002DE9F0470D4614468B6806466E
:10541000D3E90078106B92F8289001F02BFA6868B5
:10542000FFF7B2FEA968124801F079FA294611483F
:1054300001F075FA206B01F013FA60B100232046E9
:105440002385FFF7E9FE4B46324641463846BDE824
:10545000F04701F0D9BE04F10800FEF7EDFF214648
:10546000054801F007FA2146044801F058FAEAE736
:10547000C0000020D80000202C050020CC00002017
:105480002DE9F0410E461746044620B1006B01F0AD
:10549000E7F9054608B9BDE8F0810A21686801F01E
:1054A00000FD80460A20FFF71DFE804546D02846B5
:1054B00001F00EFAEDE794F8282000203A4484F831
:1054C00028202946224684F82900BDE8F041FFF74C
:1054D00099BF002384F8293094F82830DA19D2B221
:1054E00084F828200B7A93421CD8224629460220B1
:1054F000EBE794F82930DA19D2B2052A84F829208A
:1055000007D9002294F8283084F82920013384F840
:10551000283094F828200B7A9A4203D32246294651
:105520000120D2E72046FFF777FE6868BDE8F0412A
:1055300001F0B1BC224629463046C6E7A9680029D9
:10554000A9D0032EF6D801A353F826F0B7542000B3
:10555000F3542000D354200097542000014B1888A6
:10556000704700BF0C0100202DE9F04101290646DB
:105570000F46144686B003DC002006B0BDE8F0817B
:1055800003A901F0CCFD0B4603CB1B8820612383CC
:105590009DF811306161002B45D0B51C02AA01A90C
:1055A00003A801F084FC9DF81380B8F1000F4DD0E2
:1055B000029B2BB16A7815F8023B03EB02239BB2E6
:1055C000B8F1020FA38332D12046314901F058FCD3
:1055D0006B78237015F8023B63709DF81580B8F165
:1055E000000F4DD0019B002B37D06A7815F8023B95
:1055F00003EB0223029A9BB2E38302B9A383B8F1BF
:10560000020F2DD1224904F1080001F039FC6B781A
:10561000237215F8023B6372A81B3B1A8742C4E948
:105620000E53A9DBA9E7B378F51CA376B6E7B8F16A
:10563000030FD2D105F108021346611E13F8010DC4
:105640009D4201F8010FF9D11546C6E720461049E1
:1056500001F016FCA4F81C80BFE7A38BE383CEE720
:10566000B8F1030FD8D105F10802134604F108017F
:1056700013F8010DAB4201F8010BF9D11546CBE748
:10568000034904F1080001F0FBFBA4F81E80C3E706
:105690004874200030B591B00546FFF75FFF4FF624
:1056A000FF73984204D14FF0FF34204611B030BD53
:1056B00040220021684600F07BFF404B1A782AB94F
:1056C00001221A70FFF752F93D4B18701420FFF7B2
:1056D00009FD8DF810001320FFF704FD8DF812006E
:1056E000FFF71AFD0446002848D000238DF8133038
:1056F0008DF81530002301248DF814308DF81840F2
:105700004DB10A20FFF7EEFC00283FD00A20FFF73A
:10571000E9FC8DF81A0002248DF81940FFF71EFFEE
:10572000ADF81C00FFF7F8FC00283CD04FF6FF73E3
:105730008DF81740ADF80030FFF710FFADF81E00F0
:105740001A20FFF7E1FC014602A801F099FBFFF7E0
:1057500007FC0E90FFF7CEFB0F90684601F051FC5E
:105760000446002DA1D0FFF72DFC00289BD0FFF7A9
:10577000BDFB0146684601F08CFC96E70B20FFF765
:10578000B1FC8DF815408DF81300B3E70C4B1A7877
:1057900002B91C7019780A204A1C1A708DF81A1068
:1057A000FFF798FCB7E71B20FFF7AEFC0146684601
:1057B00001F066FB8DF81740BEE700BF500F0020D8
:1057C000510F0020F8B5FDF709F9114D07460024E7
:1057D0002E461A20FFF798FC294601F054FB80B1B1
:1057E0000A20FFF77FFC0C2303FB0464237A834227
:1057F0000CD16068381AB0F5206F8CBF00200120F2
:10580000F8BD0134102C05F10C05E2D10020F7E7BA
:10581000F805002070B5194D00242E461A20FFF718
:1058200073FC294601F02FFB013418B9102C05F147
:105830000C05F3D10C23621E03FB0464A4F10C05D8
:105840007AB90A20FFF74EFC3072FDF7C7F8706096
:105850001A20FFF759FCBDE870400146074801F0E7
:105860000FBB2B4654F8180C54F8141C013A03C310
:1058700054F8100C2C461860E0E700BFF805002033
:10588000014B1B6A184700BFC87220002DE9FF4773
:10589000804689461A203F49FFF72AFC01210B2048
:1058A000FFF718FC3C4B5B689847002870DBFFF75C
:1058B0001DFB3A4D90F802A06C68FFF717FB0646F7
:1058C000FFF776FB01463046A047FFF725FCAF699E
:1058D0000646B847044610B1012200240CE0A6B1E8
:1058E000AB680193FFF764FB019B9847024688B1C0
:1058F000022814BF0422012240460123494601F038
:1059000083FC204604B0BDE8F087EB699847002887
:10591000E2D1E5E7002E39D1FDF77CF80446FDF72A
:10592000EBF9C4F1FF2404F57F04F334FDF772F8BA
:10593000C442FBD4B847EE69E8B1FDF76BF8044602
:10594000FDF7DAF9C4F1FF2404F57F04EB34FDF729
:1059500061F8C442FBD4B0470446A0B103212B69CF
:1059600003A89847032803D19DF80E3053450CD067
:1059700000240122C0E7B04704460028DDD16B694E
:1059800098470028D9D00222B6E700220124B3E7C5
:105990000522A2E79007002018742000C87220009A
:1059A000044B82B018B11B6A019302B018475B6ABE
:1059B000FAE700BFC872200007B5FFF79BFA03287B
:1059C0001BD00F4B9B689847002816DB1B20FFF766
:1059D0009BFB0C4901F057FA58B1FFF7F3FE60B991
:1059E000FFF718FF084BDB68019303B05DF804EB89
:1059F0001847FFF791FB0028EFD103B05DF804FBD7
:105A00001874200090070020D073200008B5024BC6
:105A10001B689847023008BDEC73200038B50C4B6A
:105A20009B689847041E02DA4FF0FF3038BDFFF73D
:105A300097FA03780546002BF6D10220FFF73CFACF
:105A40000028F1D06878FFF74BFAA01CEEE700BF02
:105A5000EC73200070B50220FFF7B4FA10B94FF0D4
:105A6000FF3070BDFFF742FA002606700446FFF7CC
:105A700041FA6070FFF79CFA0446FFF7C7FF204425
:105A80002A2812DCC0F12B00C4B2FFF769FA0546E0
:105A9000FFF730FA22463146284400F089FDFFF72F
:105AA00029FA204480B2FFF71BFA044B5B68984741
:105AB000041ED4DBFFF730FAA01CD2E7EC73200001
:105AC000014B9B68184700BFAC73200070B50446BB
:105AD0000D4614200121FFF7FDFA034B294620460D
:105AE000BDE870409B681847D073200008B50D4B87
:105AF0000D481A68002102605A681B8942600381C0
:105B000001230A4A80F846301170094A482113706F
:105B1000FFF7A2FA0748FFF7BFF8BDE80840FFF714
:105B20008BBA00BF0C0E0020C40D00201001002015
:105B3000520F0020B8060020012210B50024064BA9
:105B400006481A70064B1C7000F076FF2146BDE82F
:105B500010400448FEF750BE10010020B806002097
:105B6000520F0020EC00002008B5044800F064FF4C
:105B7000BDE8084000210248FEF73EBEB8060020FE
:105B8000FC000020832910B5044605D11448FEF717
:105B90001BF8144801F023F923883BB140F2A91205
:105BA000934216D000230320238018E04FF4F061C5
:105BB0000D4A0E48FEF736FC0D48FEF78BFDFFF749
:105BC0003BFA0C48FEF700F892210B4A0548FFF714
:105BD0000FF9FFF731FA40F2A9130120238010BD1D
:105BE0001477200040070020695B2000D0060020C9
:105BF000FC0000202C7720003C74200010B50C46DF
:105C000003209AB0FCF734FD1948FDF7DDFF237837
:105C100083F080037E2B24D86378FF2B21D0154896
:105C2000FDF7D2FF6846FFF7A3F9009B002B16DDB6
:105C30001149059B09881AAA02EB430222F8601C4D
:105C400001330E480593FDF7BFFF01210020FDF74A
:105C500039F80B4C21460020FDF734F8FAE7FFF73E
:105C6000EBF903201AB0BDE81040FCF709BD00BFF6
:105C70003C77200050772000900700206D772000AF
:105C80007A7720002DE9F04F91F900300C46002B77
:105C9000A7B040DA3C4B93F80090B9F1000F0FD059
:105CA00000263A4DB0462F463B7A9E4223DBB8F1A0
:105CB000000F2AD0228827F8132001333B7224E0FA
:105CC000334B1F783FB3002502A8FFF751F9482254
:105CD00002A914A800F0F6FB2E464FF00A08DFF8E0
:105CE000B4A0DFF8B49014AC9DF896309D4247DA2A
:105CF0004FF0000B2BE02146284601F0C4F868B1B4
:105D00002146284601F0BFF848B1FFF795F994F90C
:105D10000030002BD4DB27B0BDE8F08FC846013639
:105D20000235C1E708FB0BA321461846019301F099
:105D3000AAF8019B40B12146184601F0A4F820B111
:105D4000002601350A34CFE73E460BF1010B9AF8E5
:105D500046108B45E6DB002EF2D008FB01F02368ED
:105D60000AEB00024AF8003063680131536023896E
:105D7000C9B2484613818AF84610FDF725FFE0E7CF
:105D8000FFF75AF9C7E700BF100100200C0E0020F2
:105D9000520F0020C40D00207C77200081F00041CC
:105DA00002E000BF83F0004330B54FEA41044FEA00
:105DB000430594EA050F08BF90EA020F1FBF54EA9B
:105DC000000C55EA020C7FEA645C7FEA655C00F037
:105DD000E2804FEA5454D4EB5555B8BF6D420CDD08
:105DE0002C4480EA020281EA030382EA000083EA8B
:105DF000010180EA020281EA0303362D88BF30BD2B
:105E000011F0004F4FEA01314FF4801C4CEA113180
:105E100002D0404261EB410113F0004F4FEA0333DF
:105E20004CEA133302D0524263EB430394EA050F6A
:105E300000F0A780A4F10104D5F1200E0DDB02FAD9
:105E40000EFC22FA05F2801841F1000103FA0EF26D
:105E5000801843FA05F359410EE0A5F120050EF133
:105E6000200E012A03FA0EFC28BF4CF0020C43FA64
:105E700005F3C01851EBE37101F0004507D54FF071
:105E8000000EDCF1000C7EEB00006EEB0101B1F5C1
:105E9000801F1BD3B1F5001F0CD349085FEA300007
:105EA0004FEA3C0C04F101044FEA445212F5800F12
:105EB00080F09A80BCF1004F08BF5FEA500C50F1AF
:105EC000000041EB045141EA050130BD5FEA4C0C92
:105ED000404141EB0101013C28BFB1F5801FE9D2EF
:105EE00091F0000F04BF01460020B1FA81F308BF12
:105EF0002033A3F10B03B3F120020CDA0C3208DDDE
:105F000002F1140CC2F10C0201FA0CF021FA02F1B8
:105F10000CE002F11402D8BFC2F1200C01FA02F128
:105F200020FA0CFCDCBF41EA0C019040E41AA2BF4D
:105F300001EB0451294330BD6FEA04041F3C1CDA15
:105F40000C340EDC04F11404C4F1200220FA04F035
:105F500001FA02F340EA030021FA04F345EA0301DF
:105F600030BDC4F10C04C4F1200220FA02F001FAA1
:105F700004F340EA0300294630BD21FA04F0294623
:105F800030BD94F0000F83F4801306BF81F48011BC
:105F90000134013D4EE77FEA645C18BF7FEA655C2F
:105FA00029D094EA050F08BF90EA020F05D054EA01
:105FB000000C04BF1946104630BD91EA030F1EBF06
:105FC0000021002030BD5FEA545C05D1400049410A
:105FD00028BF41F0004130BD14F580043CBF01F5FD
:105FE000801130BD01F0004545F0FE4141F47001E3
:105FF0004FF0000030BD7FEA645C1ABF19461046BE
:106000007FEA655C1CBF0B46024650EA013406BFBE
:1060100052EA033591EA030F41F4002130BD00BF7D
:1060200090F0000F04BF0021704730B54FF480643A
:1060300004F132044FF000054FF0000150E700BFBB
:1060400090F0000F04BF0021704730B54FF480641A
:1060500004F1320410F0004548BF40424FF0000107
:106060003EE700BF42004FEAE2014FEA31014FEA4A
:1060700002701FBF12F07F4393F07F4F81F0605199
:10608000704732F07F4208BF704793F07F4F04BFE4
:1060900041F40021704730B54FF4607401F00045C1
:1060A00021F000411CE700BF50EA010208BF704721
:1060B00030B54FF000050AE050EA010208BF704712
:1060C00030B511F0004502D5404261EB41014FF47B
:1060D000806404F132045FEA915C3FF4D8AE4FF083
:1060E00003025FEADC0C18BF03325FEADC0C18BF66
:1060F000033202EBDC02C2F1200300FA03FC20FAB7
:1061000002F001FA03FE40EA0E0021FA02F1144403
:10611000BDE600BF4A0011D212F5001211D20DD512
:106120006FF47873B3EB62520ED44FEAC12343F09D
:10613000004343EA505323FA02F070474FF0000047
:10614000704750EA013002D14FF0FF3070474FF0F6
:106150000000704753B94AB9002908BF00281CBF86
:106160004FF0FF314FF0FF3000F076B9ADF1080C81
:106170006DE904CE00F006F8DDF804E0DDE9022365
:1061800004B070472DE9F047089E0D460446884646
:10619000002B4DD18A42944668D9B2FA82F252B1AC
:1061A00001FA02F3C2F1200120FA01F10CFA02FC1B
:1061B00041EA030894404FEA1C41B8FBF1F71FFA8B
:1061C0008CFE01FB178807FB0EF0230C43EA084303
:1061D00098420AD91CEB030307F1FF3580F01E81BA
:1061E000984240F21B81023F63441B1AB3FBF1F05B
:1061F00001FB103300FB0EFEA4B244EA0344A645A3
:106200000AD91CEB040400F1FF3380F00981A64594
:1062100040F20681644402380021A4EB0E0440EAF7
:1062200007401EB10023D440C6E90043BDE8F08713
:106230008B4208D9002E00F0EE800021C6E900054F
:106240000846BDE8F087B3FA83F100294AD1AB4292
:1062500002D3824200F2FC80841A65EB0303012022
:106260009846002EE2D0C6E90048DFE702B9FFDE1B
:10627000B2FA82F2002A40F09180A1EB0C000121D9
:106280004FEA1C471FFA8CFEB0FBF7F307FB130025
:10629000250C45EA00450EFB03F0A84208D91CEB8B
:1062A000050503F1FF3802D2A84200F2CE80434632
:1062B0002D1AB5FBF7F007FB10550EFB00FEA4B23C
:1062C00044EA0544A64508D91CEB040400F1FF3557
:1062D00002D2A64500F2B6802846A4EB0E0440EA9E
:1062E00003409EE7C1F120078B4022FA07FC4CEAED
:1062F000030C25FA07FA4FEA1C49BAFBF9F820FA11
:1063000007F309FB18AA8D401FFA8CFE1D4300FA03
:1063100001F308FB0EF02C0C44EA0A44A04202FAF6
:1063200001F20BD91CEB040408F1FF3A80F08880DD
:10633000A04240F28580A8F102086444241AB4FB0C
:10634000F9F009FB104400FB0EFEADB245EA04442F
:10635000A64508D91CEB040400F1FF356CD2A64514
:106360006AD90238644440EA0840A0FB0295A4EBD5
:106370000E04AC42C846AE4656D353D0002E69D068
:10638000B3EB080264EB0E0422FA01F304FA07F7F8
:106390001F43CC40C6E90074002147E70CFA02FC19
:1063A000C2F1200125FA01F34FEA1C4720FA01F15E
:1063B00095400D43B3FBF7F107FB11331FFA8CFE39
:1063C000280C40EA034001FB0EF3834204FA02F476
:1063D00008D91CEB000001F1FF382FD283422DD9E0
:1063E00002396044C01AB0FBF7F307FB1300ADB2EB
:1063F00045EA004503FB0EF0A84208D91CEB050551
:1064000003F1FF3816D2A84214D9023B6544281A7A
:1064100043EA014138E73146304607E72F46E4E6D4
:106420001846F9E64B45A9D2B9EB020865EB0C0E0C
:106430000138A3E74346EAE7284694E74146D1E717
:10644000D0467BE76444023847E7023B65442FE7C8
:10645000084606E73146E9E6704700BF032A10B553
:1064600016D940EA010C1CF0030F04460B4622D15A
:1064700019462046D1F800E0D0F800C00433F445B6
:1064800004F1040417D1043A032A20461946EFD830
:10649000541EA2B100F1FF3C013901E0C3180CD039
:1064A0001CF801EF11F8012FA4EB0C039645F5D071
:1064B000AEEB020010BD541EECE7184610BD1046AE
:1064C00010BD00BF844641EA000313F0030349D125
:1064D000403A23D30B6803604B6843608B6883604A
:1064E000CB68C3600B6903614B6943618B6983614E
:1064F000CB69C3610B6A03624B6A43628B6A836236
:10650000CB6AC3620B6B03634B6B43638B6B83631D
:10651000CB6BC36340304031403ADBD230320BD3D7
:106520000B6803604B6843608B688360CB68C36013
:1065300010301031103AF3D20C3205D351F8043B2D
:1065400040F8043B043AF9D2043208D0D2071CBF09
:1065500011F8013B00F8013B01D30B880380604632
:10656000704700BF082A13D38B07B1D010F0030384
:10657000AED0C3F10403D21ADB071CBF11F8013BF4
:1065800000F8013BA4D331F8023B20F8023B9FE71F
:10659000043AD9D3013A11F8013B00F8013BF9D292
:1065A0000B7803704B7843708B788370604670472C
:1065B000830730B548D0541E002A3FD00346CAB2E4
:1065C00001E0013C3AD303F8012B9D07F9D1032CDC
:1065D0002DD9CDB245EA05250F2C45EA054536D91A
:1065E000A4F1100222F00F0C03F1200EE6444FEA52
:1065F000121C03F1100242E9045542E9025510321F
:106600007245F8D10CF1010214F00C0F03EB0212E9
:1066100004F00F0C13D0ACF1040323F00303043394
:10662000134442F8045B9342FBD10CF003042CB1F9
:10663000CAB21C4403F8012B9C42FBD130BD644616
:106640001346002CF4D1F9E703461446BFE71A4677
:10665000A446E0E7FEE708B5FBF720FFF7B5002406
:106660000646254627463046FCF702F80197019B6F
:10667000AB4215DB3046FCF703F8C5F5C87501974A
:10668000019B9D4211DC0134B4F5487F01D103B078
:10669000F0BDB4F5C87FD4BF2546C4F54875E2E720
:1066A00000BF019B01330193E1E700BF019B013370
:1066B0000193E5E7FCF79EB810B54FF0E02423699D
:1066C00023F001032361FCF73DF9236943F0010343
:1066D000236110BDFCF736B970470020FCF7F6B90E
:1066E0000120FCF7F3B90020FCF79CBB0120FCF76C
:1066F00099BB0220FCF796BB0320FCF793BB10B5B7
:106700000C46FCF779FE2046BDE81040FCF7A6BE1B
:1067100010B50446C1B20020FCF7D4FA204610BDE3
:1067200070B50E460025441E631C02D014F8010FFC
:1067300008B9284670BDB542FBD0FFF7E9FF013527
:10674000F2E738B505460024285D20B90A20FFF796
:10675000DFFF204638BDFFF7DBFF0134F4E7002000
:1067600070470120704710B50446302200210E20EA
:10677000FCF7A8FB6CB1012C0CD142F21073001194
:10678000A0F28E5058432A2390FBF3F000F5C3404B
:10679000283010BD4FF00040FBE70020704701207B
:1067A000704710B50446302200210F20FCF78AFB09
:1067B0005CB1012C03BF40F6F253584347F6F07327
:1067C0004FF0004008BF90FBF3F010BD084608B53D
:1067D00011460AB1FFF7A4FF002008BD10B5041F41
:1067E00054F8040F00B910BD0021FEF705F8F7E7D3
:1067F000704710B5044600F016F82046BDE810407A
:10680000FDF7AABE10B5044600F014F82046BDE816
:106810001040FDF7A1BE837BDB0701D5FDF7DEBE8F
:106820007047FFF759BF10B541600446FCF7D6F832
:10683000206010BDD0E9003213440360704710B5EA
:106840000446FCF7CBF82368C3F1010303446068F6
:1068500098422CBF0020012010BD00230360704728
:1068600000687047006820B1034600680028FBD12B
:1068700018467047036810B53BB1002499421A6866
:1068800006D11CB9026000221A6010BD2260FAE72E
:106890001C46002AF9D01346F0E738B5FFF7EAFFA7
:1068A00000230B600546FFF7DDFF08B9296038BDFE
:1068B0000160FCE738B5FFF7DDFF03680B6001609E
:1068C00038BD0368002003B970471B680130FAE740
:1068D00000B10068704710B5044642880021406846
:1068E000FFF766FE23886288A0680021BDE810409B
:1068F0005A43FFF75DBE002310B54188994201DC81
:10690000002009E04268D418D25C32B9012222701A
:106910000288806803FB020010BD0133EEE700230C
:1069200030B5826844889C4201DCFF2008E08A423E
:1069300007D14168CA5C0AB1013ACA544268D05CC6
:1069400030BD058801332A44EDE783688B4208D8BF
:106950004288008800FB023081422CBF00200120C9
:106960007047002070470023013A016002714371B3
:106970008371704710B5427983790479D31A34EA68
:10698000030308D003689954437902790133134013
:106990004371012010BD0020FCE783794279017921
:1069A000D21A0A421FBF0268D25C01330B401ABFE1
:1069B000837110464FF0FF307047FEF7BDB9FEF708
:1069C00005BA03691B6803B11847704703695B6820
:1069D00003B1184770477047F8B50E46FEF7C0FA86
:1069E00007880446FEF786FABB000233834203D8C9
:1069F00000250234AF4200DCF8BD54F8041B3046D9
:106A00000A0C89B2FEF7A2F80135F3E743695B6827
:106A100003B11847704713B504461A20FEF774FBFC
:106A2000014601A800F02CFA63691B6813B12046E7
:106A300001A9984702B010BDFFF7BFBF831C00201B
:106A400013F8022C023302B9704713F8032C1044D8
:106A5000F6E7072B2DE9F84306460F4615461C4678
:106A600007DC1A4629463846FEF724F93070BDE89F
:106A7000F8834FEAE3087AB97B5D735501354545E4
:106A8000FADB14F00702F2D0002107EB0800FEF752
:106A900011F906F80800EAE74FF0000907EB0900D2
:106AA00008222946FEF706F906F8090009F101094E
:106AB000C145F3DB14F00702D9D02946E5E72DE9FB
:106AC000F743FEF74DFA04460220FEF7F5F920B928
:106AD0000025284603B0BDE8F0836378207800EBFA
:106AE000032080B2FEF72EF905460028F0D0FEF70D
:106AF00037FA0746287B10F0070318BF012303EB82
:106B0000D000FEF7D9F90028E2D00026B146AC68E3
:106B1000023414F8023C002BDBD0192B14F8018C42
:106B200007EBE60106F007020BD901A84346FFF781
:106B300090FF14F8020C01A9FEF7DAFA4644023479
:106B4000E7E701A84346ADF80490FFF782FFBDF8E0
:106B5000041014F8020CFEF7BDFAEFE7072B2DE93D
:106B6000F0410FDC1478C1F11001CB1A04FA03F3E1
:106B70000178C3F307220A43417802700B43437044
:106B8000BDE8F081DC10C9B9555C45540131A14222
:106B9000FADB13F00703F3D0125DC3F108052A41B5
:106BA000C3F11003055D02FA03F3C3F307222A437E
:106BB000011902554A7813434B70E1E70546002658
:106BC000C1F1080E975D95F800C007FA0EF7C7F3FC
:106BD00007284CEA080C05F801CB95F800C00136EF
:106BE0004CEA0707A6422F70ECDB13F00703C7D06F
:106BF000125DC3F1080631440A41D2B2C3F1100359
:106C0000015D02FA03F3C3F307220A430519025593
:106C10006A7813436B70B3E72DE9F743057B0446AD
:106C200015F0070218BF012202EBD505A81CFEF7DC
:106C3000C9F9A8B1FEF75AF9A3880370A3881B0A03
:106C40004370FEF753F92A460025861C0021304682
:106C5000FFF7AEFCA468023414F8020C18B9012046
:106C600003B0BDE8F083192814F8017C06EBE508B1
:106C700005F007090AD9FEF747FA3B46024649469E
:106C80004046FFF76BFF3D440234E5E7FEF72AFA82
:106C90008DF80400000A3B468DF8050001AAEEE7D6
:106CA000FEF73CB838B50D46FEF74CF8044620B167
:106CB00085602846FEF72CF8207338BD10B5FEF726
:106CC00033FAFEF7B9F9FDF72FFFFFF7E9FFBDE84B
:106CD00010404FF4E1234FF4F0524FF400710220C2
:106CE000FDF7B0BF2DE9F04104460D200E46FEF73A
:106CF000F9F901281FD10E20FEF7F4F994F84C3071
:106D000098423FD1013303F0030384F84C30002351
:106D1000204684F84D3000F072F8A36C5D688DB3A6
:106D2000204600F068F82B460146204694F84E2095
:106D3000BDE8F04118470D20FEF7D4F910BB0E2036
:106D4000FEF7D0F90746FEF7FDF9054698B1FEF7C4
:106D500073F901210D20FEF7BDF939460E20FEF72B
:106D6000B9F93146204600F048F82846FEF722FAE5
:106D70002846FEF709FAA36C1B681BB13146204672
:106D8000FAB2D5E7BDE8F08138B504460D20FEF72C
:106D9000A9F918BB94F84E3094F84F200133DBB2B8
:106DA0009A4284F84E3019D884F84D00204600F0FD
:106DB00026F8A36C9D683DB1204600F01CF894F8BD
:106DC0004E2001462046A847002384F84E3094F810
:106DD0004C30013303F0030384F84C3038BD00F02D
:106DE0001AB8036C1B6803B118477047036C5B68E3
:106DF00003B1184770474430704700F01CB810B515
:106E000004461C30FDF718FBE06B18B1FEF7BCF927
:106E10000023E36310BD10B5044600F00AF82046D5
:106E2000BDE81040FFF7EBBF83695B6803B118470B
:106E30007047FFF701BE10B504461B20FEF758F956
:106E40002046BDE81040FDF727BF0EF00F000D28CB
:106E500008BF00F00EB800982DE9F04F00F12401B2
:106E600081F3098890E8F08F0EF00F000D2818BF0D
:106E70007047EFF3098020E9F04F0990BDE8F08FEB
:106E80000B8803807047022208B5FFF7E7FAB0FAD3
:106E900080F0400908BD006800F1B6018230FEF7BD
:106EA000F1B8036803EB4103B3F88200704730B5D3
:106EB00030B3037A022B2CD1C579437A04792DB9EA
:106EC000002B4AD1012C48D1204615E053EA04009A
:106ED0001DD0032D2FD1032B2FD1B4FA84F04009FC
:106EE000002309E0181E18BF0120002CF8D1023B36
:106EF000012B8CBF0023012301B10B6002B1106094
:106F000030BD023B012B8CBF00230123DCE70120B5
:106F10001BE00378022B22D0037953B9437A13F094
:106F2000030318BF0123C07910F0030018BF01202C
:106F3000E2E70023F7E7022DD4D0A3F1020CDCF145
:106F4000000040EB0C00002CCAD1022DCFD0032D45
:106F5000C6D19C1E63426341CEE7002CD1D00020F5
:106F60000346C9E7002337B50B608B80437D0D4690
:106F7000D9075CBF01232B70037E0446012B0BD87D
:106F8000C37D9A072CD0437E9B0729D0C28B838B6D
:106F90009A4225D101232375694601AA04F1100004
:106FA000FFF785FF009B0BB10223EB70019B0BB138
:106FB00002236B70E37D03F00303022B03D0032B4A
:106FC00014BF00230823AB70637E03F00303022B7E
:106FD00003D0032B14BF002308232B7103B030BD53
:106FE0000023D8E702280CBF022308230B448B425E
:106FF00001D10120704713F8012DFF2AF7D000209E
:10700000704707B56946FFF7ADFF9DF800309DF862
:107010000100023303449DF8020003449DF803007D
:1070200003449DF8040003449DF80500184403B090
:107030005DF804FB43788278DB00120102F0100255
:1070400003F008031343027802F007021343C278E7
:10705000520102F0200213430279920102F0400231
:1070600013430B704379427A03F0010343EA82131E
:107070008279520002F002021343C279920002F0B8
:107080000C021343027A120102F0300213434B70D8
:10709000704737B504460D466946FFF763FF29463A
:1070A00004F11000FFF7C6FF9DF800309DF80120A5
:1070B000012B09BFA37E0223AB700323022A08D150
:1070C000A18B5A1CE954A18BD2B20233090ADBB25C
:1070D000A9549DF802201344DBB2991AC9B2B2B97F
:1070E0009DF80320022A08D1E18B5A1CE954E18B58
:1070F000D2B20233090ADBB2A9549DF80420083445
:107100001344D8B2831ADBB22AB903B030BD013AB6
:10711000A05C6854E1E7013AA15CE954F2E7027827
:10712000437802F007000870C2F3C0004870C2F351
:1071300000108870C2F34010C2F380120A7103F08D
:1071400001024A71C3F340028A71C3F38102CA711A
:10715000C3F301129B09C8700A724B72704730B5B5
:1071600091B0FDF7FDFE0446FDF7C4FE6A460146F8
:107170002046FEF7F9F9044620B94FF0FF342046C7
:1071800011B030BDFDF798FE0028F6D014209DF810
:107190001010FDF79FFF9DF81730ABB1BDF81C50E4
:1071A000FEF7DCF9854205D04FF6FF73BDF81C20D1
:1071B0009A42E2D169469DF81700FFF713FF18B90C
:1071C00069461B20FDF794FF02A91A20FDF790FFE6
:1071D00013209DF81210FDF77DFF9DF8153053B96F
:1071E0009DF81A100A20FDF775FF9DF81A100E2061
:1071F000FDF770FFC3E74FF6FF71F3E70020FEF7DE
:1072000049BA0120FEF746BA10B4044608461146B2
:107210001A4614B1234610BC184710BC7047002012
:107220007047FEF72DBB70B504460D4602B970BD20
:10723000D2E90060FDF7BEFF29462046FEF726FB97
:107240000028F4D03246F1E7FEF720BB704700007B
:10725000C074200095262000F126200000000000C8
:1072600001000000010000000100000000C000401B
:1072700000410D4000000000080000002C0000004C
:1072800000000001FFFFFFFF0500000002000000FA
:10729000020000000200000000D0004008410D4044
:1072A00002000000080000002C00000002010200A3
:1072B000FFFFFFFF060000005B7520005F752000E8
:1072C0006E7520007275200031362000F9332000E1
:1072D0005D342000FF66200035352000DD322000BF
:1072E000213020003930200019312000E12F20000A
:1072F0009131200011332000913720000535200006
:1073000007000000FF00000005000000ED00000085
:1073100003000000D500000001000000C5000000CF
:1073200000000000B6000000FFFFFFFFB0000000FB
:10733000FDFFFFFFA1000000FBFFFFFF9100000029
:10734000F9FFFFFF88000000F7FFFFFF7200000059
:10735000F5FFFFFF62000000F3FFFFFF5800000091
:10736000F1FFFFFF42000000E8FFFFFF0000000008
:1073700099752000676720005F6720006367200021
:10738000AD752000A36720009B6720009F67200049
:10739000D9692000D7692000176A20000D6A2000F3
:1073A000BF6A2000196C20003D6A2000477620004B
:1073B000BD6C2000994D2000E56C2000896D2000F7
:1073C000E36D2000ED6D2000314E2000296E20007D
:1073D0005C762000B153200065522000E55120006A
:1073E000F1512000FD51200009522000FD712000C4
:1073F000037220005F71200061762000237220005C
:107400004972200027722000B959200081582000BD
:10741000A15920001F7220000D5A2000555A20004B
:107420001D5A2000697620004D722000CD5A2000A0
:10743000C15A2000FC00002000000000FD5B20007D
:1074400000000000000000000000436F6E74696BD4
:10745000692D373133373638356332005A6F6C65F2
:10746000727469612052452D4D6F74652072657686
:107470006973696F6E204220706C6174666F726D03
:107480000052696D6520636F6E6669677572656429
:1074900020776974682061646472657373200025C5
:1074A0003032783A00253032780A00204E65743A3E
:1074B0002000204D41433A2000205244433A20000E
:1074C000427574746F6E004343323533383A204945
:1074D000443A2030782530346C782C207265762E32
:1074E0003A20504725642E25642C20466C61736831
:1074F0003A20256C75204B69422C205352414D3A5D
:1075000020256C75204B69422C204145532F534850
:10751000413A2025752C204543432F5253413A20B0
:1075200025750A53797374656D20636C6F636B3ACC
:1075300020256C7520487A0A492F4F20636C6F63B1
:107540006B3A20256C7520487A0A52657365742061
:1075500063617573653A2025730A00504F520045E8
:10756000787465726E616C2072657365740057443F
:107570005400434C44206F7220736F6674776172BD
:107580006520726573657400636332353338205249
:107590004620647269766572004F6E2D436869708B
:1075A0002054656D7065726174757265005644444F
:1075B0003300303132333435363738394142434481
:1075C00045460030313233343536373839616263FD
:1075D000646566003058003078002D002B00286E5E
:1075E000756C6C29002500202020202020202020E0
:1075F00020202020202020303030303030303030FB
:10760000303030303030304374696D6572207072C4
:107610006F63657373004576656E742074696D657C
:10762000720053657269616C2064726976657200DC
:1076300053656E736F72730000001A1000000080B3
:10764000C0E0F0F8FCFEFF52696D65000D010E020E
:107650001B101A1000001B101A10000043534D415C
:10766000006E756C6C726463006E756C6C73656330
:1076700000446973636F766572792050726F636539
:10768000737320456E6465640A0D005265736574FA
:10769000004E65696768626F72205461626C653A7A
:1076A0000A0D004E65696768626F722025643A2092
:1076B00025783A2578202020202020004E65696713
:1076C00068626F722044617461626173653A206E12
:1076D000756D626572206F66206E6F64657320251C
:1076E000640A0D004E6F646520257825782C20777C
:1076F000697468202564206E65696768626F7273BB
:107700003A0A0D00256420202578257820202020A5
:1077100020202000476174657761792050726F6383
:1077200065737320456E6465640A0D00737461723D
:107730007420676174657761790A0D0072756E69EE
:10774000636173742072656365697665640A0D0010
:10775000636F6D62696E65642070617469656E74D3
:10776000732072656365697665640A0D005B465730
:107770004420746F2055534220006100757064618D
:1077800074652025640A0D0047617465776179206E
:107790004D61696E2046756E6374696F6E73004E3D
:1077A0006574776F726B20446973636F7665727965
:0177B00000D8
:1077B40080732000507220007073200000000000CD
:1077C4000000000088752000013720000000000040
:1077D400CD672000000000000000000007762000B4
:1077E4003D43200000000000000000001676200049
:1077F400B1442000000000000000000022762000B8
:1078040069482000000000000000000030762000DD
:10781400F949200000000000040008002D0F00209A
:10782400AC040020BE000800350F0020D207002061
:107834000C0008003E0F0020CC040020340002009D
:10784400460F0020300500200C000800480F0020DF
:1078540098050020855C2000000000000000000066
:1078640088772000855B20000000000000000000F5
:107874009F7720009122200000000000CDAB1A0168
:017884000102
:08788800FCE8FF7F0100000095
:020000040027D3
:10FFD400FFFFFFF30000000000202000FFFFFFFFF1
:10FFE400FFFFFFFFFFFFFFFFFFFFFFFFFFFFFFFF1D
:0CFFF400FFFFFFFFFFFFFFFFFFFFFFFF0D
:040000050027FFD4FD
:00000001FF
