:020000040020DA
:10200000501600208D2220008F5E20008D5E200063
:102010008D5E20008D5E20008D5E2000000000009F
:102020000000000000000000000000001565200016
:102030008D5E200000000000336520000D5F200051
:102040001F5F2000255F20002B5F2000315F2000F4
:1020500000000000135F2000195F20008D5E20004B
:102060008D5E200000000000000000000000000065
:1020700000000000000000008D5E20000000000055
:1020800000000000000000008D5E20008D5E20003A
:102090008D5E20008D5E20008D5E20008D5E200014
:1020A0008D5E20008D5E20008D5E20008D5E200004
:1020B0008D5E20008D5E20008D5E20008D5E2000F4
:1020C0008D5E20008D5E20008D5E20008D5E2000E4
:1020D0008D5E2000000000000000000000000000F5
:1020E00000000000000000000000000000000000F0
:1020F0000000000000000000BD372000CD372000A8
:1021000000000000000000000000000000000000CF
:1021100000000000000000000000000000000000BF
:1021200000000000000000000000000000000000AF
:10213000000000000000000000000000000000009F
:10214000000000000000000000000000000000008F
:10215000000000000000000000000000000000007F
:10216000000000000000000000000000000000006F
:10217000000000000000000000000000000000005F
:10218000000000000000000000000000000000004F
:10219000000000000000000000000000000000003F
:1021A000000000000000000000000000000000002F
:1021B000000000000000000000000000000000001F
:1021C000000000000000000000000000000000000F
:1021D00000000000000000000000000000000000FF
:1021E00000000000000000000000000000000000EF
:1021F00000000000000000000000000000000000DF
:1022000000000000000000000000000000000000CE
:1022100000000000000000000000000000000000BE
:1022200000000000000000000000000000000000AE
:10223000000000000000000000000000000000009E
:10224000000000000000000000000000000000008E
:10225000000000000000000000000000000000007E
:10226000000000000000000000000000000000006E
:102270008D5E20009D362000C13620002D2D2000CF
:10228000193920006D2820008D5E2000FF220024D7
:1022900008B5094B0948C3F8B420094A636E0949D7
:1022A000121A98470848094A2146236E121A98477D
:1022B00000F00EF8FEE700BF00200D4040000020B7
:1022C00000010020646D2000000100204E0E00205F
:1022D00073B500F011FC00F0CBFC00F027FC00F01F
:1022E00053FA01F007FB03F0B8FE00F0B9FC00F070
:1022F000ADF8012003F0CEFD02F0E4F800F0E8FBB9
:10230000002000F00BFB012000F008FB00203D49FD
:1023100000F0C8FB02F00AFA62B6042003F0BAFD2E
:10232000394803F02AFE394803F027FE00F0CAF9C5
:10233000002002F0A3FA01F0D9F90021344802F09C
:102340004DF901F031FF03F0D1FD00F013FD00F075
:102350002FFD02F0CFFD0821684601F0F1FA2D4D66
:10236000BDF806402C482C8001F026FB2B4E297826
:102370002B4801F021FB69782A4801F01DFBF56A22
:102380004AF6CD310220A84761BA89B20320A84796
:102390001A210120A84708226946736B0B20984731
:1023A000214801F009FB214B186803F0E6FD2048A5
:1023B00001F002FB1F4B186803F0DFFD1E4801F01F
:1023C000FBFA1E4B186803F0D8FD00211C4802F0F0
:1023D00005F91C4B01219B688120984703F024FEDE
:1023E000194803F017FE00F079FB022003F052FDBC
:1023F00000F07AFB02F07EF8C0B20028F8D101F0BC
:1024000011FAF5E7E5462000EE6A2000006B200097
:1024100078000020F80C0020256B20009069200037
:10242000436B2000496B20004F6B2000646A200042
:10243000566B20008C6A20005D6B2000A86A20008B
:102440009800002018692000E46A200008B500F018
:10245000E1F80022014B1A7008BD00BF120D0020E8
:10246000024B1A781043187000F0F6B8120D0020D5
:10247000034A137823EA0000107000F0EDB800BFA3
:10248000120D002018B1012804D000207047034B22
:10249000186A7047024B1878704700BF00900D40D3
:1024A000140D002010B5094A002013780133137071
:1024B000074B197802F06AF8BDE81040054900237F
:1024C000054A0968054801F0A5BE00BF140D0020AB
:1024D000130D002038010020A52420001801002041
:1024E00008B50346812B08462DD0B3F5807F3ED03A
:1024F000802B26D101F0DEFF1E4B032118701E4BEE
:102500000020D3F8202422F00802C3F82024D3F8B6
:10251000002422F00802C3F80024D3F8042422F097
:102520000802C3F80424D3F8082442F00802C3F8D0
:102530000824042200F0AAFB032200210F4800F027
:1025400049FB01200AE00C4B0D49D3F8102430B1AF
:1025500042F00802C3F8102401230B6008BD22F0EA
:102560000802C3F810240123C1F88030F6E7054BB8
:102570001960E6E7130D002000900D40892520002A
:1025800000E100E03801002008B50F4803F073FDBA
:10259000C8B108210C4803F062FD0C4B196849B121
:1025A00000220B4B1A700B4B1B6A43B90A4A0B48AB
:1025B00001F030FEBDE80840094802F033B9074891
:1025C00001F032FEF6E708BD1001002038010020BE
:1025D000140D002000900D40A524200018010020BB
:1025E00018692000094BD3F8202422F00402C3F814
:1025F0002024D3F8002442F00402C3F8002400226F
:102600001A610122024B1A70704700BF00C00D40D2
:10261000190D002000210F4BD3F8202422F0C00216
:10262000C3F82024D3F8002442F0C002C3F80024E9
:10263000C3F8001303F50053D3F8202422F010024E
:10264000C3F82024D3F8002442F01002C3F8002479
:102650001964704700A00D4010F0020218BFFF225D
:10266000084BC3F8002210F0040218BFFF2210F03C
:102670000100C3F8002118BFFF22034B14BF1A64E6
:102680001864704700A00D4000C00D40044BDB698A
:10269000C3F3072013F4704F04BF1030C0B270476B
:1026A00000300D40064B5869C00910F0060F03BFFB
:1026B00000F00700C0F1020040034FF400407047F3
:1026C00000300D402DE9F047002488B0FFF7DEFF11
:1026D000164B0646DF69236D9847E36C80469847A2
:1026E0000446FFF7DFFF054600F05CFA814600F084
:1026F00065FA824600F010FAAD0A07F00103A40A59
:10270000C7F34007CDE905A003934146CDF81090EB
:1027100002970195009406F00F03C6F307120448D0
:1027200001F04AF908B0BDE8F08700BF00300D4065
:102730006B6B20002DE9784800F064F810490246E0
:10274000D1E900BC6646584538BF0CF10106334656
:10275000C1E900230B4ED6E90001B0EB0B0461EB9D
:102760000C05A01845EB0301C6E9000101F00CFEC1
:1027700018B1BDE8784801F08DBDBDE8788800BF8C
:1027800008010020000100204FF0E023E0210B4A67
:102790005A610B4A82F82310002207219A611961BD
:1027A00008498B6843F001038B60074BDA60042211
:1027B0001A6001225A600F229A63704747E80100AD
:1027C00000ED00E000200D4000000340034BD3E982
:1027D0000023100A40EA0360704700BF0801002090
:1027E000044B9862DA6842F00102DA60DA68D207D4
:1027F000FCD4704700000340014B1868704700BFCD
:102800003C010020054A106C516C936C1B0443EA98
:1028100001230343D06C43EA0060704700500D4031
:1028200010B504460E4A136DDB07FCD572B6FFF7F0
:10283000E9FF231A062BD8BFC41D094B220EDA6408
:10284000C4F307429A64C4F307225A64E2B21A64DA
:1028500062B64FF40032034B1C60034B1A6110BD8B
:1028600000500D403C01002000E100E008B500F000
:10287000C5FF0022064B1A604FF40032054BC3F827
:102880009021C3F89020BDE8084001F0CBBE00BF06
:102890003C01002000E100E0064B9B691B075FBF85
:1028A000054B986980F00800C0F3C00048BF0020C5
:1028B000704700BF00C0004000D000402C22154BE4
:1028C00070B502FB00334FF6BF72DC680546236C1F
:1028D000626413F050020DD00F4EA369DB0600D5E1
:1028E00070BD56F825301BB12068C0B29847F4E798
:1028F0002368F2E713F4D06FF2D04FF440732363F0
:10290000FF236360E36AE262E362236B43F0010347
:102910002363E5E7286920004001002001282DE914
:10292000F74F804600F2AD802C254543564F7C1969
:1029300094F92090B9F1000FC0F2A38094F92260BD
:10294000002EC0F29E80514800F0C2FF504B7959D2
:102950009A6A94F921A00A439A62DA6A6168E56882
:102960000A43DA621A6BA168F0B20A431A630023C1
:1029700022690AEBC901C5F8C83F116094F8231019
:10298000227DCDE9000194F923B000F089F9DDE959
:102990000001082200F07AF9012231033D4E02FACB
:1029A0000BFB88594FEA09394BEA0000885159F866
:1029B000061002FA0AFA4AEA010149F80610502103
:1029C000A963A96B94F9240041F4D061A9630221A1
:1029D00069634FF440712963A16900286962E16964
:1029E000A9624FF07001E96216DB002394F925100B
:1029F000294C41EAC005C4F804510403A5598A4092
:102A00002A43A251C9B21A46C0B200F03FF9234A84
:102A1000136B43F4004313632C2303FB087393F9F4
:102A20002640002C1ADB93F82790E5B20122494694
:102A3000284693F927A000F033F901232403A25973
:102A400003FA0AF31343A35108224946284600F02B
:102A50001DF9124A136B43F4804313632C2000FBCF
:102A60000877FA68136B43F001031363012297F8A8
:102A70002830590903F01F0302FA03F3084A42F809
:102A8000213003B0BDE8F08F28692000992820008C
:102A900000200D4020940D4000400D4000D000402B
:102AA00000E100E001289CBF014B43F82010704773
:102AB00040010020012808D82C22044B02FB0030E2
:102AC000C3689A699206FCD419607047286920008F
:102AD0000022014B1A60704700500D400822014B44
:102AE0001A60704700500D40A022024B1A6050221D
:102AF0001A60704700500D40014A024B9A607047BF
:102B00000020200000ED00E0024B5868C0F3815027
:102B1000704700BF00200D4008B5FFF7F5FF024BDE
:102B200053F8200008BD00BF8069200010B5194C83
:102B30000122D4F82034062123F04003C4F82034C5
:102B4000D4F80034032023F04003C4F8003400F02C
:102B50009DF8D4F82034012223F08003C4F82034F7
:102B6000D4F80034072123F08003C4F80034032094
:102B700000F08CF8084A094B1A60094A596811425A
:102B8000FCD15A685201FCD4044A53685B01FCD55D
:102B900010BD00BF00C00D400101020000200D402B
:102BA00000000101034B04485B6803F00703184170
:102BB000704700BF00200D400048E801034B044867
:102BC0005B68C3F302231841704700BF00200D402B
:102BD0000048E801024B02EBC10243F822007047B3
:102BE00048010020F8B507460D460024084E06EBC4
:102BF000411647FA04F3DB07E1B204D556F8243056
:102C00000BB1284698470134082CF2D1F8BD00BF1B
:102C1000480100202DE9F8430546DFF8388000F030
:102C2000EDFD0D4B2E03F75856F808404FEAC50945
:102C300024FA09F447EA04002946C0B2FFF7D2FF9C
:102C4000E4B2064BFFB204FA09F4F75046F8084024
:102C5000BDE8F88318970D4018940D401C940D4062
:102C600080220021014803F0BFB800BF48010020C6
:102C7000034B044A1A60044B803A1A60704700BF45
:102C8000C801002080400D40CC010020034B01EB27
:102C9000C0011B6843F82120704700BFC801002015
:102CA000034B01EBC0011B6843F82120704700BFB4
:102CB000CC0100200E2870B506460DD1134B5C6B7D
:102CC00044F0020058631248D0F8F45625F03F0350
:102CD00043F00103C0F8F4360E48836823F0FF0385
:102CE0001A4311433143816003681B06FCD5C36856
:102CF000006903F0FC0343EA00230E2E18B201BF63
:102D0000034BC3F8F456014B5C6370BD00000144F3
:102D10000080084000700D40034BD3F80007B0FA64
:102D200080F04009704700BF00B008404FF40042F7
:102D3000064B10B5064CC3F89021C3F890202068CC
:102D400018B101F063FC0023236010BD00E100E036
:102D5000D0010020064B9A6C42F002029A64DA6CB1
:102D600042F00202DA641A6D42F002021A657047FC
:102D700000200D4007B50C4800F0AAFDFFF7EAFF60
:102D80000A4B5A6D42F002025A6500220192019AE2
:102D90000F2A06DD5A6D22F002025A6503B05DF873
:102DA00004FB019A0132F1E7192D200000200D40AB
:102DB000064B9A6C22F002029A64DA6C22F002024C
:102DC000DA641A6D22F002021A65704700200D4085
:102DD0000D4BD3F84C269107FBD4D3F84C26520662
:102DE0005EBFED22C3F83828C3F83828D3F82C2664
:102DF00012B1EF22C3F83828044A0120137803F0F7
:102E00007F031370704700BF008008401C0D002036
:102E1000044BD3F84C0600F02200A0F120035842E6
:102E20005841704700800840024BD3F84C0600F030
:102E30004000704700800840054BD3F8002620B1C1
:102E400042F00102C3F80026704722F00102F9E7C0
:102E500000800840284B1870002841D0274A53684A
:102E60001B03FCD5264BD3F8042842F00202C3F81A
:102E70000428D3F8042842F00102C3F80428D3F848
:102E800004285007FBD5D3F8042822F00102C3F828
:102E900004281B4BD3F804285107FBD4D3F804288B
:102EA00042F00202C3F80428D3F8042842F00102D9
:102EB000C3F80428D3F804285207FBD5D3F88C268E
:102EC00022F00402C3F88C26D3F8342822F004023E
:102ED000C3F834284FF400520A4BC3F890207047CF
:102EE000074AD2F88C3643F00403C2F88C364FF40C
:102EF0000052044B1A6170471B0D002000200D404A
:102F00000080084000E100E0094B93F90020002A0E
:102F10000CDBED21074AC2F83818C2F83818E32153
:102F2000C2F838181A7862F07F021A7001207047D0
:102F30001C0D00200080084070B5A0F10B05EBB21D
:102F40000F2B044614D80C4ED6F8483613F03F0326
:102F500002D0FFF73DFF012305EB85050B35C6F8D1
:102F60003C560BB1FFF7D0FF044B60B21C7070BD34
:102F70004FF0FF30FBE700BF00800840FE0000205C
:102F800038B50C46002900F09180102800F290809E
:102F9000DFE800F009111D252B434C60667D818E12
:102FA0008E86885D8A00434BD3F82C36003B18BFD1
:102FB000012323602BE005223E4BD3F83C3603F07F
:102FC0007F030B3B93FBF2F30B33DBB2F1E7394AA0
:102FD000D2F8CC15D2F8C83543EA0123E9E7354ADF
:102FE000D2F8D415D2F8D035F6E70023314A0B6079
:102FF000D2F8003603F001030B60D2F824269006C5
:1030000044BF43F002030B602B4B1B780BB900202D
:103010000BE00B6843F00403CBE70020274B08606C
:103020001B78002BF3D001230B6038BD214B2449C2
:10303000D3F840260023D2B201EBC30000799042BE
:1030400002D851F83330B4E701330E2BF4D16FF0CE
:103050001703AEE7174BD3F858365BB2493BA8E7E6
:10306000144DD5F8483699060FD1FFF74DFF0123CF
:10307000D5F86426D207FBD5D5F86056493D6DB228
:103080000BB1FFF7A5FE2560C1E70023F0E70D4B6C
:1030900093F900308DE70C4B1B7803F07F0388E732
:1030A0000B2386E71A2384E7072382E70220BCE785
:1030B0000120BAE7008008401B0D0020FF0000201F
:1030C000C86920001D0D00201A0D002010B50B4C02
:1030D000D4F8483699060FD1FFF716FF0123D4F82C
:1030E0006426D207FBD5D4F84C46C4F300140BB1C8
:1030F000FFF76EFE204610BD0023F0E70080084079
:1031000010B50C46072865D8DFE800F0040F1A2335
:103110002C444A5E012903D1FFF7F6FE00203EE071
:10312000002959D1FFF754FEF8E7A1F10B030F2B4B
:1031300052D8C8B2FFF700FF0130EFD103202EE0D4
:10314000264BCAB2C1F30724C3F8C825C3F8CC453F
:10315000E4E7224BCAB2C1F30724C3F8D025C3F871
:10316000D445DBE731F0070336D101F00100FFF76A
:1031700063FE1A4B11F0020FD3F82426C1F380002E
:1031800014BF42F0200222F02002C3F82426FFF7E9
:1031900061FEC3E731F001001ED1114B197010BD63
:1031A00001F118031F2B17D80D230E4A52F83310C4
:1031B0008C4206DC02EBC3031A79084BC3F84026A5
:1031C000ACE7013BF2D2A9E7044BCCB24934C3F8D7
:1031D0005846A3E70120E2E70220E0E7008008402C
:1031E000FF000020C869200070B505460C46144E4B
:1031F000D6F84C369B07FBD4124B93F90030002BCA
:1032000001DBFFF781FEEE23691EC6F83838C6F8E9
:103210003838A31CC6F828382144022000F080FA70
:103220000949013C41EA0411022000F08BFA022016
:1032300000F092FA022000F0A7FA002070BD00BF53
:10324000008008401C0D002002C001C070B5264B54
:1032500093F90030002B19DBFFF7D4FA0446FFF78F
:1032600053FEC4F1FF2404F57F04F634FFF7CAFAD5
:10327000C442FBD401261D4B1B784BB91C4CD4F81F
:103280004C36990609D50224204670BD0026F2E787
:10329000FFF71CFF0028F1D1F5E7E9230425C4F866
:1032A0003838D4F84C369A0703D4013D15F0FF05A1
:1032B0000AD1D4F84C369B070AD50D4BD3F84C46AF
:1032C00014F00204FAD109E00620FFF789FAE8E7D2
:1032D000EE23C4F83838C4F838380124002ED3D08F
:1032E000FFF776FDD0E700BF1C0D0020FF00002097
:1032F000008008400B280DD1082A0DD161B1074B81
:10330000074A083111F8010D43F8040B9342F9D133
:10331000002070470120704702207047A8850840B0
:10332000C885084070B5384A0546D2F84C0610F0FA
:10333000400009D0D2F82808040606D5ED23C2F8CB
:103340003838C2F83838002070BDC0B20428F5D92A
:1033500002388842F2DCC4B2032C24D1D2F82838D7
:103360002B70D2F828386B70D2F82838AB70264D05
:10337000264BD5F82818264E493949B21970D5F888
:1033800028381806337026D589B2042001F088FD4C
:103390003178032001F07F0101F082FD1D4B1B7885
:1033A000FBB12046D0E729190320013900F0C0F90C
:1033B0001949631E032041EA031100F0C3F90320F9
:1033C00000F0CAF9032000F0DFF9032000F0E8F96B
:1033D0000028FAD1CBE7ED23C5F83838C5F83838DE
:1033E000B1E7D5F84C365A06DBD5D5F84C361B0676
:1033F00003D50A4801F00AF9D3E7ED23C5F83838B8
:10340000C5F83838CDE700BF008008401D0D00200A
:103410001A0D00201B0D002002C0010C50000020DE
:103420002DE9F041294F3E7816F001064CD10125D7
:10343000274B284CC3F8A850C3F8AC50C3F8B05081
:10344000F823C4F858360923C4F8E83715230B22AB
:10345000C4F8C836204B4FF07F085A604023C4F8A8
:103460002436D4F8243643F02003C4F82436D52378
:10347000C4F80866C4F85086C4F84036174B18786C
:10348000FFF75AFD4FF48042154B0220C4F8948692
:103490001A6100F06DF91349022000F049F9032088
:1034A00000F066F90F49032000F03AF90E4B187846
:1034B000FFF7D0FC0D48314601F090F828463B78E4
:1034C0002B433B70BDE8F0810020FBE71C0D002082
:1034D00000200D400080084000600D40FE000020EC
:1034E00000E100E0288808401B0D0020500000206B
:1034F00038B50388044653B340F20342934233D1B4
:103500001B4B1A7842BB822924D11B7873B901F076
:1035100079FC01F00BFC8021FFF704FF002805DD9A
:1035200080B201F0C3FB134B1B699847124B1A780A
:1035300052060CD500221A70104BD3F84856FFF7EC
:1035400047FCFFF76DFFAB0601D0FFF7DDFC40F253
:103550000343238001200AE01A78002AFAD0064AA1
:1035600012785006F6D5CEE700230380032038BD3D
:103570001B0D0020A86A20001C0D002000800840C0
:103580000B282DE9F8430D460FD1082A7CD10029DC
:103590007AD03E4B3E4A4D1E53F80419934205F82B
:1035A000011FF9D10020BDE8F8830C286AD1042A54
:1035B0006AD1002968D0374BD3F8102822F00702CF
:1035C000C3F81028D3F8042842F00802C3F80428EE
:1035D000D3F81428D3F81818D3F81008D2B220F072
:1035E0007000C3F81008D3F82448D3F82008090263
:1035F00042EA006289B224040A4304F47F04D3F847
:103600001C7842EA0408D3F81028FFB222F007021F
:1036100042F00102C3F81028D3F8042842F008024F
:10362000C3F80428D3F81448D3F81828D3F810188E
:10363000E4B221F0700141F01001C3F81018D3F882
:103640002418D3F82008120292B244EA0064090454
:10365000144301F47F010C43D3F81C185FFA81F97D
:10366000FFF7D0F8B8EB040467EB0907FF03064641
:103670000023094AE00347EA544102F087F9361A69
:103680002E608FE701208EE702208CE7C48508407A
:10369000A4850840008008400048E80108B5054BB3
:1036A0001B7813B9044800F0B1FF0022034BC3F8A4
:1036B000342808BD1B0D0020500000200080084069
:1036C000074A0848D2F82C38042B1FBF06490B784C
:1036D00043F040030B700023C2F82C3800F096BF73
:1036E00000800840500000201C0D002010B5094C3F
:1036F00040220021204602F077FB0122064B5A604F
:103700004FF480429C60054B5A604FF400425A606F
:1037100010BD00BF0000002000F00F4000E100E0FD
:1037200003289EBF014B0001195070470000002084
:1037300003289EBF024B03EB00104160704700BF9F
:103740000000002003289EBF024B03EB00108160A5
:10375000704700BF00000020032806D80123034A59
:1037600003FA00F0916A08439062704700F00F403E
:10377000032806D80123034A03FA00F0116A08431C
:103780001062704700F00F40032806D80123034A57
:1037900003FA00F0516908435061704700F00F4090
:1037A00003289FBF044B03EB0010806800F0070064
:1037B00088BF0020704700BF000000204FF0FF329C
:1037C000014BC3F80425704700F00F400122014B64
:1037D000DA64704700F00F40074B5A68D102FCD4FE
:1037E0001A6822F480321A605A68D203FCD41A682C
:1037F00042F400321A60704700200D4010B5084CAA
:10380000A36D99070BD063685A01FCD463685B0110
:10381000FCD502F06DFBFFF7DFFF0023A36510BDB1
:1038200000200D4070B5264BD3F8484614F03F04F5
:1038300014D1244D55F8043B23B1984770B101349D
:10384000052CF7D1204E337843B1FEF7D5FF04465F
:10385000FEF7D8FF201A092800D90CB930BF26E09E
:103860001A4B1A6822F400321A605A68D202FCD449
:103870001A68164D42F480321A606B68DB03FCD57F
:10388000FEF7C0FF241A092C03D8BDE87040FFF7EB
:10389000A3BF632C0CD93378022B09D1AB6500F0A0
:1038A0006BFE38B1FFF798FF0022084B9A6570BD98
:1038B0000123F3E7FEF7A0FF0028F3D0CEE700BF17
:1038C00000800840D40100201E0D002000200D4083
:1038D000074A10B50023144652F8041B814202D057
:1038E00011B944F8230010BD0133052BF4D1FAE7D8
:1038F000D40100200022054B05499A650B6943F06D
:1039000004030B61034B1A70704700BF00200D4089
:1039100000ED00E01E0D00204FF48032064B10B584
:10392000064CC3F89021C3F89020206818B100F02D
:103930006DFE0023236010BD00E100E0E8010020DF
:103940004FF4201270B592F82B40431E54B101F58C
:103950002012184C2732A2421AD012F8015903F84B
:10396000015FF8E792F82A40122CF0D192F8292052
:103970004B2AECD14C0804F520120E4D2732AA42F6
:103980000DD1002301F5201205192732A3420BDBCC
:103990001323014401F8013C01F8023C70BD12F808
:1039A000016903F8016FEAE7D61A3678013305F8A2
:1039B000016BEBE7270028000FB407B504AA52F803
:1039C000041B0448019200F021F803B05DF804EBF9
:1039D00004B070476000002070B505460C460A4EE2
:1039E000102C07D874B122462B6868680649BDE8D8
:1039F00070401847102231462B686868984710B904
:103A0000103CEDE7204670BD8B6C20002DE9F04F97
:103A10008046154600278DB00491049B1B78002B2F
:103A200000F07983049B1A781C460133002A00F0C9
:103A30006183252AF7D1049B9C4205D05DE323785E
:103A40003744002B00F067836278631C002A00F083
:103A500062830024184610F8012B19462B2A15D032
:103A600009D8202A15D0232A16D0A2F13106082E13
:103A700040D8002219E02D2A04D0302AF5D144F094
:103A8000100401E044F001040346E3E744F00604B7
:103A9000FAE744F00204F7E744F00804F4E70A21E7
:103AA000019A01FB0299A9F13002194613F8019B12
:103AB0000192A9F13002092AF1D90B782E2B36D1C7
:103AC0004A784B1CA2F13000092828D84FF0000B8F
:103AD0001A781946A2F13000092803F1010318D918
:103AE0000B786C2B6BD14B786C2B23D144F080047A
:103AF000023122E02A2A09D12B680146002B0193CA
:103B000005F10405B8BF44F00104D6E70023019392
:103B1000D3E70A2101FB0B2BABF1300BD8E72A2AA4
:103B200004D1D5F800B002310435D9E719464FF079
:103B3000FF3BD5E7013144F060040B78782B0CD8BB
:103B4000572B48D8472B08D8402B00F28D80002BEC
:103B500000F0E182252B00F0D0804B1C049304F48C
:103B6000E063B3F5A06F00F0A28200F2C980B3F564
:103B7000407F00F06882B3F5806F00F02F82B3F5CC
:103B8000807F7FF44AAFBBF1000FACBF24F010047C
:103B90004FF0010B14F4005904F0E00300F07A81B7
:103BA000402B00F0728100F2C280002B00F0708187
:103BB000202B00F0CB800026B2460023D3E0682BF8
:103BC000BBD14B78682B02D144F0200490E701313F
:103BD00044F04004B1E7583B202BBED801A252F874
:103BE00023F000BFAD3C20005B3B20005B3B20008E
:103BF0005B3B20005B3B20005B3B20005B3B2000ED
:103C00005B3B20005B3B2000D73C20005B3B20005F
:103C1000E33C2000953C2000BF3C2000B33C20004A
:103C2000CB3C20005B3B2000953C20005B3B200010
:103C30005B3B20005B3B20005B3B2000F53C200011
:103C4000A13C2000EF3C20005B3B20005B3B2000C0
:103C5000E93C20005B3B20009B3C20005B3B2000BC
:103C60005B3B2000A73C2000413B062B3FF675AF95
:103C700001A252F823F000BFDD3C20005B3B200096
:103C80005B3B20005B3B2000C53C2000B93C200092
:103C9000D13C200044F424545FE744F410645CE712
:103CA00044F4885459E744F4C85456E744F4B24401
:103CB00053E744F4007450E744F484444DE744F47B
:103CC00002444AE744F4424447E744F4813444E779
:103CD00044F4A13441E744F4C1343EE744F4E13410
:103CE0003BE744F4A06438E744F4806435E744F4E7
:103CF000407432E744F4E0642FE744F4C0642CE7F6
:103D0000B3F5C06F07D0B3F5E06F7FF486AE2B68D4
:103D100004351F6081E60122D8F80030A649D8F8A2
:103D200004009847002840F0F481013775E6602BC5
:103D300000F0AE80802B7FF43EAFEA1D22F0070238
:103D40001546D2F804A055F8086B04E095F9006018
:103D500004354FEAE67ABAF1000FBFF62EAF012321
:103D600076426AEB4A0A029304F4C053B3F5805FCB
:103D700000F0E480B3F5C05F00F0E680B3F5006FBB
:103D800000F0C6800DF12E03009300230393039BE4
:103D900041F608029B4588BFABEB030B41F20803D9
:103DA00004EA020198BF4FF0000B994204D1BBF125
:103DB000010F38BF4FF0010B039B91425B4440F071
:103DC000DF8056EA0A0200F0DB807C497C4A14F46A
:103DD000804F4FF0020614BF8A469246B9F1000F99
:103DE0000DD0029A002A40F0CE8004F00602022A8A
:103DF00000F0CD80062A734A04BF0126924606EBE6
:103E00000309019B4B4594BF4FF00009A3EB09093F
:103E100014F00103019304D1E20640F1BC80CB44CD
:103E200099464EB132465146D8F80030D8F80400D1
:103E30009847002840F06D815C46039BDFF888A11D
:103E40001F44102CD8E9003000F2AD802CB122467E
:103E50005D499847002840F05C81D8F80030039A0B
:103E60000099D8F8040037449847002840F0518161
:103E7000019B5F44002B00F0E08049464046FFF77D
:103E8000ABFD002800F0D98043E1B5F900605FE7A1
:103E90002E685DE7402B1BD007D8DBB1202B11D05B
:103EA0004E46CA46CDF808905EE7602B12D0802BB4
:103EB000F6D1EA1D22F007021546D2F804A055F803
:103EC000086B02E02E78CA460435CDF808904BE71F
:103ED0002E88F8E72E68F6E7039805990A22002352
:103EE00001F054FD009B303203F8012D0398059931
:103EF00000930A22002301F049FD03900591039BE2
:103F0000059A1343E8D1009A0DF12E039B1A3DE761
:103F10000DF12E030396CDF814A00093EFE700985F
:103F200003F00701303100F8011DDB0843EA42735A
:103F30000090D20853EA0201F1D1E4E70DF12E011D
:103F4000334652460091F5E7204B14F4804F204948
:103F5000524608BF194633460DF12E00009053EA31
:103F60000200D0D003F00F00DDF800C0085C1B0990
:103F70000CF8010D43EA0273CDF800C01209EEE718
:103F80000026B2462AE70126DFF848A037E70126D7
:103F9000DFF844A033E749464046FFF71DFD0028FF
:103FA0003FF43FAFB5E0102251469847002840F05B
:103FB000B080103C45E700BF896C2000786C200081
:103FC0007B6C2000806C20009B6C2000676C2000C4
:103FD000566C20007E6C20005B6B20002E68043540
:103FE0006EB333469A469AF800200133002AF9D17D
:103FF000AAEB060ABBF1000F02DBDA4528BFDA465E
:10400000019B534594BF4FF00009A3EB0A0914F03C
:10401000010405D149464046FFF7DEFC002878D16F
:1040200052463146D8F80030D8F8040098470028A6
:104030006FD15744002C7FF420AF4F44EDE44FF094
:10404000060A374ED6E7374B14F4804F364808BF80
:1040500018460DF12B0300229A462968043551EACF
:1040600002061AD1BAEB030A04BF302203F8012C6E
:104070004FF0780208BF03F1FF3303F8012C4FF033
:10408000300208BF4FF0010A03F8022C2322DE1E83
:1040900003F8032C0AF1030AB2E701F00F06865D6C
:1040A000090941EA027103F8016D1209D7E7DDF849
:1040B00004902B68B9F1010F38BF4FF0010914F0DB
:1040C000010405F104058DF8183009F1FF3605D11A
:1040D00031464046FFF780FCD8B937440122D8F872
:1040E0000030D8F8040006A9984790B9002CA4D055
:1040F0003146C3E6049B9C420DD0049B0499E61A0A
:104100003246D8F80030D8F80400984700283FF429
:1041100096AC4FF0FF3738460DB0BDE8F08F00BFCA
:10412000826C2000676C2000566C2000F8B5038874
:1041300005461646CBB14A2B2BD188291FD11748EB
:1041400001F0AAFF0446C4B1231D9E421FD121469F
:10415000124801F0ABFF124E636937683360A36900
:104160000BB1E0699847376007E00C4801F094FF15
:10417000044634B901220B4B1A704A232B800120CC
:104180000AE0A168201D01F050FF2468F1E72468CF
:10419000D9E7002303800320F8BD00BFEC01002015
:1041A000780300201F0D002010B50024054B0648A1
:1041B0001C7001F06EFF2146BDE81040034800F07E
:1041C0000DBA00BF1F0D0020EC0100206800002088
:1041D00070B50446E3610B4B049D1B78C4E905529E
:1041E0006BB1094D094B2E68201D2B6001F01DFF9E
:1041F0002E602146BDE87040054801F06ABFA1600D
:10420000F7E700BF1F0D00207803002068000020A2
:10421000EC01002013B5034C24680094FFF7D8FF8D
:1042200002B010BD7803002010B5084B04461B787F
:1042300043B1043000F0B0F82146BDE81040044816
:1042400001F034BFC0E90333F6E700BF1F0D0020C3
:10425000EC01002010B50D4C236813B90C4A136013
:1042600010BDFEF7B3FA2268D2E900310B441B1AE5
:1042700092681AB91844064B1860F1E7D2E90014A5
:104280002144091A8B4228BF0B46F1E7F4010020B4
:10429000F0010020014800F0B9B900BF780000200B
:1042A0002DE9F0410388054653B1592B46D18729A2
:1042B00021D1002023490B6863B918B10B6001E0DC
:1042C000204A1360592301202B80BDE8F081012092
:1042D0003346F1E7D3E902649442F8D000B10B60B1
:1042E00019460B4689680029ECD0C8689042F8D17D
:1042F00089689960F4E78229E4D14FF00008114FF2
:1043000000263C68002CDDD0204601F0B4FE90B1C0
:1043100022468821E06800F039F950B9A368E060CE
:104320002EB1B360C4F80880FFF794FFE8E73B6064
:10433000F8E7FFF7AFFF2646A468E3E70023038012
:104340000320C2E7F401002010B50446FFF7A2FFE6
:10435000E3680B4A0BB1136833B90A4B1B68E3607F
:1043600013681460A36004E0A34206D1054A1268F2
:10437000DA60BDE81040FFF76DBF9B68ECE700BF57
:10438000F401002078030020024B1868003818BFA1
:1043900001207047F401002010B50B4A0446136851
:1043A000834208D183681360FFF754FF0023C4E9F8
:1043B000023310BD1346002BF8D09A68A242F9D1FF
:1043C000A2689A60F0E700BFF401002038B5836866
:1043D00004460D469BB10A4804600220A07304F114
:1043E0000C0098470238012801D9832D05D12146B8
:1043F0002046BDE8384000F005B80123A37338BD5E
:10440000780300202DE9F8431C4F04463D68884698
:104410002B46A34204D00BB9BDE8F8831B68F8E72C
:10442000002CF9D0164EA37BD6F8009063B1002380
:10443000A3738DB9A3683BB1444505D02A468321B7
:10444000346004F10C0098473B68A3420ED1236806
:104450003B60C6F80090DFE7A54204D022468721E2
:10446000284601F0F4FD2D68E3E71346002BF0D059
:104470001A68A242F9D122681A60EAE77C03002098
:1044800078030020002238B50125084B1A70084B2C
:104490001C6804B938BDE37B2BB100228221204681
:1044A000E581FFF793FF2468F3E700BF230D0020A9
:1044B0007C030020024B1878421C1A70704700BF22
:1044C000210D00208A22064B1A700023054A137022
:1044D000054A1370054A1360054A1360704700BF10
:1044E000210D0020200D0020220D00207C03002043
:1044F000780300202DE9F0411A4E33780BB1FFF715
:10450000C1FF194D2C7894B10C221849184F0B7823
:10451000013C5A430133B81803F01F03BF5C0B7012
:104520002C70D0E9018090B9124B1C6824B9337803
:1045300028781844BDE8F08133780BB1FFF7A2FF6B
:1045400020464246394601F082FD2468EEE7812F7D
:1045500008BF01234246394608BF837301F077FD47
:10456000E5E700BF230D0020220D0020200D0020D4
:10457000F80100207C030020024A034B10781B78CE
:1045800018447047220D0020230D0020F0B50B4D7C
:104590002C78202C0FD00C26094B0A4F1B78234473
:1045A00003F01F037343FE18C6E901200020013405
:1045B000F9542C70F0BD0120FCE700BF220D002053
:1045C000200D0020F801002038B5034C256801F0CB
:1045D0003EFD256038BD00BF7803002010B40A46B8
:1045E00009490C68234683420CD04BB950B1046092
:1045F0000860012110BC817383818121FFF7E4BF32
:104600001B68F0E710BC70477C03002038B1837B47
:10461000013B012B9FBF0123014AC37313707047F5
:10462000230D002010B5084C206858B100232360EA
:10463000D0E901319847236823B1BDE810401868DC
:10464000FEF7EEB810BD00BF8003002070B50588EE
:104650000446672D09D0792D2FD0002D33D1FFF7D7
:1046600029FF1B4B18701B4B1D601B4E194D08E09A
:104670000A282B680ED07E2B03DC5A1C2A60174AAE
:10468000D054304601F0A5FD431CF1D167232380AF
:1046900001201BE05A1C2A600025104A2846D554E8
:1046A0000B4B1978FFF772FF0D4B2A4685211868CE
:1046B000FFF76CFF18B97923E9E78529E8D10022D3
:1046C000044B1A60D1E700230380032070BD00BFB4
:1046D000250E00208403002088030020240D0020E4
:1046E000780300200D28014610B516D00C4C237815
:1046F00053B90C4801F05AFD08B9012323700A4848
:10470000FFF784FF012010BD0A28F8D1054801F009
:104710004DFD0028F3D00023F0E70020F3E700BFB1
:10472000A40D0020880300208800002008B505495A
:104730000548802201F033FDBDE808400021034810
:10474000FFF74CBFA50D0020880300208800002043
:104750002DE9F04105880446772D20D07E2D3DD0EF
:10476000002D4ED1FFF7A6FE284E294B294FDFF82A
:10477000A88018703560336857F823202AB9274A73
:1047800013707723238001203EE008F803509368DC
:10479000002180209847336801333360EBE7002322
:1047A0001F4A1360194A1360184B1C4A1B68127881
:1047B0009A4204DC1A4B1B68002BF0D1E1E7164A41
:1047C000D256002A19DA134A002052F82320104B3F
:1047D0001978FFF7DBFE28B97E23D3E70C4B1B7853
:1047E0008B42D0D1094B0C491A688B5C03F07F03D4
:1047F0008B540B4A136801331360044A1368013366
:10480000D1E7002303800320BDE8F081940300205A
:10481000270E002040000020150D0020260E00204D
:104820009003002010B40A4B0A4A197800238B42E7
:1048300003DA52F8044BA04208D107490748CA5C82
:1048400062F07F02CA5410BCFFF7E0BE0133EEE70E
:10485000260E002040000020150D002098000020AA
:10486000054B1A6842F004021A6058699B6940EAD5
:10487000032080B2704700BF00700D40184A1368D3
:1048800023F00C0313600122164BC3F8A820D3F8C1
:10489000A820012AFBD10822134BC3F82426E322C7
:1048A000C3F83828D3F86426D207FBD50E48102267
:1048B0000023D0F89C16013A01F0010143EA0103FC
:1048C0004FEA43039BB2F4D1002BF0D0044A190AFB
:1048D00003F0FE0351615361EF23C0F8383870478D
:1048E00000700D4000200D40008008400088064BFD
:1048F00040BA80B28840995CC2F1080201EA2020E7
:104900001041C0B2704700BFDC6C2000F8B506460D
:104910000A480D46174601F0BFFB044630B93A4637
:1049200029463046BDE8F84001F0EFBDA3680BB161
:1049300028469847204601F0E7FBEEE79803002061
:1049400038B500F0BFF80546094801F0A5FB04465C
:1049500028B95DB12846BDE8384001F0D1BD636893
:1049600003B19847204601F0CFFBF0E738BD00BF08
:104970009803002010B5044600F0B2F838B100F0FA
:10498000B1F9034B034821469B689847012010BDAD
:10499000D46A20000D49200070B50B4C0023616ED5
:1049A0000A4A04F13800FFF735FCFFF759FF656E3E
:1049B0000023B0FBF5F1064A01FB150104F11800D4
:1049C000BDE87040FFF726BC9C030020D5492000BD
:1049D000ED492000044B5A6E196E5200914294BF6B
:1049E00059665A66FFF7D8BF9C03002010B500F047
:1049F00009FA00F09BF900230380044600F0C0F898
:104A00002288930008B1017B51B9023398B200F0BB
:104A10004DF9238873B1BDE81040074800F044B851
:104A2000818823445980C18801329980228001F015
:104A30006BFBE5E710BD00BF9C0300209DF8003034
:104A4000012B04D1024B9A6D5A66FFF7A5BF704740
:104A50009C030020F8B50F4616461D46064C01463D
:104A6000064A204600F00EF8C4E91676256604488A
:104A7000BDE8F84000F07EB89C030020706A20007A
:104A80003D4A200070B505460C461646044A00F023
:104A90005BF820466E610349BDE8704001F022BD1D
:104AA000786A2000EA6C200010B5044604491A20F8
:104AB00000F004FA2046BDE8104001F01FBD00BF21
:104AC000F80C0020054B10B51B689847044618B138
:104AD0008188012000F0E4F9204610BD586A2000CA
:104AE00038B5064B05465B6898470446A9880120FF
:104AF00000F0D6F9201E18BF012038BD586A2000EA
:104B0000014B9B68184700BF586A2000014801F01C
:104B1000C0BA00BF0804002081800146014801F0AE
:104B2000D8BA00BF0804002010B50446054801F0BB
:104B3000B3FA00B910BD8388A342FBD001F0E4FAB8
:104B4000F7E700BF0804002070B505460C4616467E
:104B5000FFF7E2FF20462E610249BDE8704001F0F8
:104B6000C1BC00BFEE6C2000014801F092BA00BF4A
:104B70000C040020014B1860704700BF1004002097
:104B8000014801F089BA00BF0C0400202DE9F04172
:104B900005460C480C46164601F07EFA08B9BDE8F9
:104BA000F0818388A34209D18768002FF7D033466C
:104BB00022462946BC46BDE8F041604701F0A4FA10
:104BC000ECE700BF0C04002008B5044801F09FFA90
:104BD000BDE80840024801F09ABA00BFB4000020C6
:104BE000A800002038B50E4801F0A1FA054650B1E2
:104BF0000C4801F09CFA0446286030B92946084860
:104C000001F0A9FA2546284638BD00F097F804F1CE
:104C1000B601A4F8800004F1820000F019F9F2E76F
:104C2000A8000020B400002010B501460446074843
:104C300001F0A7FA48B12168054801F08CFA214635
:104C4000BDE81040014801F086BA10BDA800002060
:104C5000B400002010B501460446094801F091FA5D
:104C600068B12468B4F88010204600F0DBF804F145
:104C7000B60104F18200BDE8104000F0FDB810BD9F
:104C8000A800002010B507490B88834208DB064CBA
:104C900080B222880244181A08800120228010BDA8
:104CA0000020FCE7B80C0020BA0C0020014B188053
:104CB000704700BFB80C0020004870473404002043
:104CC000014B1888704700BFB80C0020034A044B02
:104CD00010781B881844C0B2704700BF380E0020FF
:104CE000BA0C00202DE9F0410C4E338873B100243A
:104CF0000B4B0C4FB3F800800B4B1D783D4421B299
:104D0000414504F1010403DB00233380BDE8F08159
:104D1000FFF7DCFF3844435C6B54F0E7BA0C00202B
:104D2000B80C002034040020380E002008B5FFF72E
:104D3000CDFF014B184408BD34040020F8B50C4BDE
:104D400004461E780B4B1F88F519802D0DDC32466A
:104D5000094900F0D3FFFFF7E9FF344401463A4622
:104D6000204600F0CBFF2846F8BD0025FBE700BF3A
:104D7000380E0020B80C00203404002008B5FFF7DE
:104D8000A5FF024B1B88184480B208BDB80C002058
:104D900010B50146FFF7F2FF4318802B12DC431ECB
:104DA000094A1BB21A44481C002B05DA074B187835
:104DB00001440120197010BD12F80149013B14543F
:104DC0001BB2F1E70020F6E734040020380E002083
:104DD00070B534220021084801F006F80024074D80
:104DE000074E28463146013401F0BBFB042C05F187
:104DF0000205F6D170BD00BFC40C0020BC0C002021
:104E0000EC6A20000023044A1380044A1380044AF9
:104E10001370FFF7DDBF00BFBA0C0020B80C0020F4
:104E2000380E002038B50C460546FFF7EBFF802C06
:104E300028BF802429462246034800F05FFF034B29
:104E400020461C8038BD00BF34040020B80C002070
:104E500010B5074B03F1340253F8044B934240F86A
:104E6000044BF9D1034A13680B6053684B6010BDC3
:104E7000C40C0020BC0C002010B5074B00F134021C
:104E800050F8044B904243F8044BF9D10B68034AA5
:104E900013604B68536010BDC40C0020BC0C002094
:104EA000024B23F810100120704700BFC40C0020F3
:104EB000014B33F810007047C40C002008B5044BB8
:104EC0001A3803EB400001F04CFB012008BD00BF85
:104ED000BC0C0020024B1A3803EB4000704700BFA7
:104EE000BC0C00200149024801F03EBBEC6A2000E6
:104EF000BE0C0020084B10B51B689847074B5B6839
:104F00009847074B5B689847064B5B689847BDE836
:104F10001040054B5B68184790692000A86A200084
:104F2000D46A20008C6A2000646A2000F8B5FDF77E
:104F30004DFC114D074600242E461A20FFF7CAFFEC
:104F4000294601F011FB80B10A20FFF7B1FF0C23C5
:104F500003FB0464237A83420CD16068381AB0F5ED
:104F6000206F8CBF00200120F8BD0134102C05F10A
:104F70000C05E2D10020F7E7B404002070B5194D0C
:104F800000242E461A20FFF7A5FF294601F0ECFA6F
:104F9000013418B9102C05F10C05F3D10C23621E55
:104FA00003FB0464A4F10C057AB90A20FFF780FF23
:104FB0003072FDF70BFC70601A20FFF78BFFBDE825
:104FC00070400146074801F0CCBA2B4654F8180C43
:104FD00054F8141C013A03C354F8100C2C46186002
:104FE000E0E700BFB404002030B591B0054600F002
:104FF00093F84FF6FF73984204D14FF0FF342046E8
:1050000011B030BD40220021684600F0EDFE404B5B
:105010001A782AB901221A70FFF722FC3D4B18704A
:105020001420FFF745FF8DF810001320FFF740FF15
:105030008DF81200FFF756FF0446002848D00023E1
:105040008DF813308DF81530002301248DF81430BD
:105050008DF818404DB10A20FFF72AFF00283FD0F5
:105060000A20FFF725FF8DF81A0002248DF8194059
:1050700000F052F8ADF81C00FFF734FF00283CD0D8
:105080004FF6FF738DF81740ADF8003000F044F88C
:10509000ADF81E001A20FFF71DFF014602A801F01F
:1050A00060FAFFF743FE0E90FFF70AFE0F90684686
:1050B00001F061FB0446002DA1D0FFF769FE002836
:1050C0009BD0FFF7F9FD0146684601F09CFB96E78F
:1050D0000B20FFF7EDFE8DF815408DF81300B3E7B8
:1050E0000C4B1A7802B91C7019780A204A1C1A70E5
:1050F0008DF81A10FFF7D4FEB7E71B20FFF7EAFE82
:105100000146684601F02DFA8DF81740BEE700BF52
:10511000390E00203A0E0020014B1888704700BF5E
:10512000FC0000202DE9F041012906460F461446F7
:1051300086B003DC002006B0BDE8F08103A901F0D1
:10514000A8FB0B4603CB1B88206123839DF81130FD
:105150006161002B45D0B51C02AA01A903A801F08A
:1051600060FA9DF81380B8F1000F4DD0029B2BB16F
:105170006A7815F8023B03EB02239BB2B8F1020FE9
:10518000A38332D12046314901F0EBF96B782370CB
:1051900015F8023B63709DF81580B8F1000F4DD0F3
:1051A000019B002B37D06A7815F8023B03EB0223F2
:1051B000029A9BB2E38302B9A383B8F1020F2DD107
:1051C000224904F1080001F0CCF96B78237215F83C
:1051D000023B6372A81B3B1A8742C4E90E53A9DB4A
:1051E000A9E7B378F51CA376B6E7B8F1030FD2D1DF
:1051F00005F108021346611E13F8010D9D4201F8E6
:10520000010FF9D11546C6E72046104901F0A9F96A
:10521000A4F81C80BFE7A38BE383CEE7B8F1030FAC
:10522000D8D105F10802134604F1080113F8010D65
:10523000AB4201F8010BF9D11546CBE7034904F164
:10524000080001F08EF9A4F81E80C3E7EC6A200084
:10525000014BDB68184700BFD46A2000014B5B6933
:10526000184700BFA86A2000014B9B69184700BF80
:10527000A86A2000024BD86900B10047704700BF00
:10528000A86A200070B590F829400F4B042C2146E5
:1052900028BF04210124DB698C400546984701287A
:1052A00038BF0120013C444305D0FFF7D9FAB0FBD9
:1052B000F4F303FB14042B46214605F10800034ACE
:1052C000BDE87040FEF7A6BFA86A20004154200048
:1052D0002DE9F04106461B200F46FFF7FBFD494B29
:1052E00005461A78484C22B901221A70FFF7B8FA1D
:1052F000208023880BB90123238021880A204B1C9E
:105300002380FFF7CDFD414800F0C6FE044600288B
:1053100047D13F4800F00BFF0446002868D02946DB
:10532000201D01F01EF9002304F12C00C4E90B300C
:10533000238500F0AEFE2146344800F0CAFE206B03
:1053400000F0DBFE072853DC324800F0F0FE054693
:10535000002841D0304800F0EAFEA860C0B3FFF753
:1053600041FC686080B30920D5F80880FFF7A0FDF4
:1053700008BB082388F808300D20C8E90067FFF74C
:1053800097FD01282946206B1BD100F0AFFE206B52
:1053900000F082FE854233D12046BDE8F041FFF7A0
:1053A00071BF2946201D01F0DFF80028C7D1204633
:1053B00000F0AAFEAAE70920FFF77AFD88F80800A6
:1053C000DAE700F086FEE2E7A968134800F0C3FEC2
:1053D0002946104800F0BFFE206B00F08EFE38B961
:1053E00021460A4800F062FE2146094800F0B3FE5B
:1053F00039463046BDE8F0410123042201F069BA84
:10540000BDE8F0813B0E0020FA0C0020D4050020FE
:10541000CC000020D8000020C000002008B50548BE
:1054200000F075FE044800F072FEBDE80840034835
:1054300000F06DBED8000020C0000020CC0000208D
:1054400013B5044668B1006B00F026FE024640B179
:105450002146054B0548DB68019302B0BDE81040CA
:10546000184702B010BD00BFA86A2000ED5420000C
:105470002DE9F0470D4614468B680646D3E90078BF
:10548000106B92F8289000F011FE6868FFF7CCFBD3
:10549000A968124800F05FFE2946114800F05BFE43
:1054A000206B00F0F9FD60B1002320462385FFF753
:1054B000E9FE4B46324641463846BDE8F04701F02A
:1054C00008BA04F10800FEF7AFFE2146054800F0D7
:1054D000EDFD2146044800F03EFEEAE7C000002052
:1054E000D8000020D4050020CC0000202DE9F04198
:1054F0000E461746044620B1006B00F0CDFD054670
:1055000008B9BDE8F0810A21686801F024F88046F6
:105510000A20FFF7CDFC804546D0284600F0F4FD78
:10552000EDE794F8282000203A4484F82820294602
:10553000224684F82900BDE8F041FFF799BF002317
:1055400084F8293094F82830DA19D2B284F8282067
:105550000B7A93421CD8224629460220EBE794F8A6
:105560002930DA19D2B2052A84F8292007D9002275
:1055700094F8283084F82920013384F8283094F8EE
:1055800028200B7A9A4203D3224629460120D2E7EB
:105590002046FFF777FE6868BDE8F04100F0D5BF10
:1055A000224629463046C6E7A9680029A9D0032E1D
:1055B000F6D801A353F826F0235520005F552000AC
:1055C0003F55200003552000014B1B6A184700BFC0
:1055D000906920002DE9FF47804689461A203F49FF
:1055E000FFF76CFC01210B20FFF75AFC3C4B5B687A
:1055F0009847002870DBFFF75FFB3A4D90F802A058
:105600006C68FFF759FB0646FFF7B8FB01463046CA
:10561000A047FFF767FCAF690646B847044610B1DC
:10562000012200240CE0A6B1AB680193FFF7A6FBB2
:10563000019B9847024688B1022814BF0422012228
:1056400040460123494601F044F9204604B0BDE834
:10565000F087EB6998470028E2D1E5E7002E39D1C1
:10566000FDF7D0F80446FDF73FFAC4F1FF2404F536
:105670007F04F334FDF7C6F8C442FBD4B847EE69A3
:10568000E8B1FDF7BFF80446FDF72EFAC4F1FF2498
:1056900004F57F04EB34FDF7B5F8C442FBD4B04702
:1056A0000446A0B103212B6903A89847032803D11E
:1056B0009DF80E3053450CD000240122C0E7B047BE
:1056C00004460028DDD16B6998470028D9D0022212
:1056D000B6E700220124B3E70522A2E7F80C002078
:1056E000C86A200090692000044B82B018B11B6A80
:1056F000019302B018475B6AFAE700BF9069200087
:1057000007B5FFF7DDFA03281BD00F4B9B689847BE
:10571000002816DB1B20FFF7DDFB0C4900F024FFFF
:1057200058B1FFF703FC60B9FFF728FC084BDB68B2
:10573000019303B05DF804EB1847FFF7D3FB002893
:10574000EFD103B05DF804FBC86A2000F80C00201C
:105750008C6A200008B5024B1B689847023008BDD0
:10576000806A200038B50C4B9B689847041E02DA0B
:105770004FF0FF3038BDFFF7D9FA03780546002B0C
:10578000F6D10220FFF77EFA0028F1D06878FFF703
:105790008DFAA01CEEE700BF806A200070B50220E1
:1057A000FFF7F6FA10B94FF0FF3070BDFFF784FA3B
:1057B000002606700446FFF783FA6070FFF7DEFAF2
:1057C0000446FFF7C7FF20442A2812DCC0F12B0053
:1057D000C4B2FFF7ABFA0546FFF772FA224631462C
:1057E000284400F001FBFFF76BFA204480B2FFF77A
:1057F0005DFA044B5B689847041ED4DBFFF772FA2E
:10580000A01CD2E7806A2000014B9B68184700BFAC
:10581000646A200070B504460D4614200121FFF78C
:105820003FFB034B29462046BDE870409B68184764
:105830008C6A200008B5FFF7E5FA16210348FFF748
:10584000F1FABDE808400248FFF72EB9FC0C002031
:10585000A00600202DE9F0410388044603B35A2B2B
:105860002FD1FFF7E7FF194D194800F0E7FB194862
:10587000FEF7A2F800262F46DFF85C803B7D02355C
:105880009E4204DB5A2301202380BDE8F08140467C
:1058900015F8012C15F8021CFEF78EF80136EDE71D
:1058A00081210E4A0E48FFF7EDF80122074B4FF415
:1058B00080711A750B4A064812881A8000F0B5FBF1
:1058C000E0E7002303800320DFE700BFFC0C00209B
:1058D000B8060020056D2000176D2000E4000020B0
:1058E000A0060020F80C00202DE9F04F4FF0000A30
:1058F0008DB06C4657462148FEF75EF806AD684607
:10590000FFF71CFA0FCC0FC5DFF8748094E8030092
:10591000DFF8709045F8040B298006AE9DF82C3016
:105920009F4223DA184D4FF0000B2C460DE029461C
:10593000304600F019FE023528B14846FEF73CF823
:1059400001370236EAE70BF1010B237D9B45EEDBC5
:10595000092BF5D84046FEF72FF8237D32884FF00B
:10596000010A24F8132001332375E9E7BAF1000F87
:1059700001D0FFF75FFF0DB0BDE8F08F296D20006B
:10598000416D2000326D2000FC0C002053B94AB953
:10599000002908BF00281CBF4FF0FF314FF0FF3037
:1059A00000F076B9ADF1080C6DE904CE00F006F810
:1059B000DDF804E0DDE9022304B070472DE9F0478B
:1059C000089E0D4604468846002B4DD18A429446D7
:1059D00068D9B2FA82F252B101FA02F3C2F120019F
:1059E00020FA01F10CFA02FC41EA030894404FEA64
:1059F0001C41B8FBF1F71FFA8CFE01FB178807FB6F
:105A00000EF0230C43EA084398420AD91CEB030327
:105A100007F1FF3580F01E81984240F21B81023F62
:105A200063441B1AB3FBF1F001FB103300FB0EFEC5
:105A3000A4B244EA0344A6450AD91CEB040400F1CD
:105A4000FF3380F00981A64540F2068164440238A4
:105A50000021A4EB0E0440EA07401EB10023D4400D
:105A6000C6E90043BDE8F0878B4208D9002E00F05C
:105A7000EE800021C6E900050846BDE8F087B3FACC
:105A800083F100294AD1AB4202D3824200F2FC806A
:105A9000841A65EB030301209846002EE2D0C6E984
:105AA0000048DFE702B9FFDEB2FA82F2002A40F0D6
:105AB0009180A1EB0C0001214FEA1C471FFA8CFEDC
:105AC000B0FBF7F307FB1300250C45EA00450EFB7E
:105AD00003F0A84208D91CEB050503F1FF3802D2F8
:105AE000A84200F2CE8043462D1AB5FBF7F007FB23
:105AF00010550EFB00FEA4B244EA0544A64508D9A1
:105B00001CEB040400F1FF3502D2A64500F2B6807A
:105B10002846A4EB0E0440EA03409EE7C1F12007AB
:105B20008B4022FA07FC4CEA030C25FA07FA4FEAED
:105B30001C49BAFBF9F820FA07F309FB18AA8D40B3
:105B40001FFA8CFE1D4300FA01F308FB0EF02C0C2B
:105B500044EA0A44A04202FA01F20BD91CEB040405
:105B600008F1FF3A80F08880A04240F28580A8F1D9
:105B700002086444241AB4FBF9F009FB104400FB4A
:105B80000EFEADB245EA0444A64508D91CEB040458
:105B900000F1FF356CD2A6456AD90238644440EA68
:105BA0000840A0FB0295A4EB0E04AC42C846AE46EA
:105BB00056D353D0002E69D0B3EB080264EB0E0429
:105BC00022FA01F304FA07F71F43CC40C6E9007438
:105BD000002147E70CFA02FCC2F1200125FA01F38B
:105BE0004FEA1C4720FA01F195400D43B3FBF7F152
:105BF00007FB11331FFA8CFE280C40EA034001FB1F
:105C00000EF3834204FA02F408D91CEB000001F100
:105C1000FF382FD283422DD902396044C01AB0FB1D
:105C2000F7F307FB1300ADB245EA004503FB0EF0A6
:105C3000A84208D91CEB050503F1FF3816D2A8428B
:105C400014D9023B6544281A43EA014138E731463A
:105C5000304607E72F46E4E61846F9E64B45A9D259
:105C6000B9EB020865EB0C0E0138A3E74346EAE7FF
:105C7000284694E74146D1E7D0467BE764440238A2
:105C800047E7023B65442FE7084606E73146E9E669
:105C9000704700BF032A10B516D940EA010C1CF06A
:105CA000030F04460B4622D119462046D1F800E0E6
:105CB000D0F800C00433F44504F1040417D1043AC9
:105CC000032A20461946EFD8541EA2B100F1FF3C2A
:105CD000013901E0C3180CD01CF801EF11F8012FB5
:105CE000A4EB0C039645F5D0AEEB020010BD541E9C
:105CF000ECE7184610BD104610BD00BF844641EACF
:105D0000000313F0030349D1403A23D30B68036027
:105D10004B6843608B688360CB68C3600B69036129
:105D20004B6943618B698361CB69C3610B6A036211
:105D30004B6A43628B6A8362CB6AC3620B6B0363F9
:105D40004B6B43638B6B8363CB6BC36340304031DE
:105D5000403ADBD230320BD30B6803604B684360B0
:105D60008B688360CB68C36010301031103AF3D277
:105D70000C3205D351F8043B40F8043B043AF9D205
:105D8000043208D0D2071CBF11F8013B00F8013BD8
:105D900001D30B8803806046704700BF082A13D3E5
:105DA0008B07B1D010F00303AED0C3F10403D21AB5
:105DB000DB071CBF11F8013B00F8013BA4D331F80D
:105DC000023B20F8023B9FE7043AD9D3013A11F88D
:105DD000013B00F8013BF9D20B7803704B7843701C
:105DE0008B78837060467047830730B548D0541E67
:105DF000002A3FD00346CAB201E0013C3AD303F87F
:105E0000012B9D07F9D1032C2DD9CDB245EA0525EB
:105E10000F2C45EA054536D9A4F1100222F00F0CEB
:105E200003F1200EE6444FEA121C03F1100242E98E
:105E3000045542E9025510327245F8D10CF10102C5
:105E400014F00C0F03EB021204F00F0C13D0ACF1A2
:105E5000040323F003030433134442F8045B934226
:105E6000FBD10CF003042CB1CAB21C4403F8012B83
:105E70009C42FBD130BD64461346002CF4D1F9E7B7
:105E800003461446BFE71A46A446E0E7FEE708B516
:105E9000FCF7FCF9F7B500240646254627463046B0
:105EA000FCF7DEFA0197019BAB4215DB3046FCF7AD
:105EB000DFFAC5F5C8750197019B9D4211DC0134DD
:105EC000B4F5487F01D103B0F0BDB4F5C87FD4BFAD
:105ED0002546C4F54875E2E700BF019B01330193F5
:105EE000E1E700BF019B01330193E5E7FCF77ABBD3
:105EF00010B54FF0E024236923F001032361FCF780
:105F000019FC236943F00103236110BDFCF712BCA7
:105F100070470020FCF7D2BC0120FCF7CFBC00206A
:105F2000FCF778BE0120FCF775BE0220FCF772BEBC
:105F30000320FCF76FBE10B50C46FDF755F920465F
:105F4000BDE81040FDF782B910B50446C1B200208B
:105F5000FCF7B0FD204610BD70B50E460025441E6E
:105F6000631C02D014F8010F08B9284670BDB54271
:105F7000FBD0FFF7E9FF0135F2E738B5054600240D
:105F8000285D20B90A20FFF7DFFF204638BDFFF764
:105F9000DBFF0134F4E7002070470120704710B5A3
:105FA0000446302200210E20FCF784FE6CB1012C47
:105FB0000CD142F210730011A0F28E5058432A23E4
:105FC00090FBF3F000F5C340283010BD4FF00040C7
:105FD000FBE7002070470120704710B504463022CF
:105FE00000210F20FCF766FE5CB1012C03BF40F6D8
:105FF000F253584347F6F0734FF0004008BF90FB50
:10600000F3F010BD084608B511460AB1FFF7A4FF2A
:10601000002008BD10B5041F54F8040F00B910BDCE
:106020000021FEF7DBFAF7E7704710B5044600F0F1
:1060300016F82046BDE81040FEF786B910B50446B4
:1060400000F014F82046BDE81040FEF77DB9837BD0
:10605000DB0701D5FEF7BAB97047FFF759BF10B596
:1060600041600446FCF7B2FB206010BDD0E900326D
:1060700013440360704710B50446FCF7A7FB236880
:10608000C3F101030344606898422CBF0020012043
:1060900010BD00230360704700687047006820B19E
:1060A000034600680028FBD118467047036810B506
:1060B0003BB1002499421A6806D11CB90260002243
:1060C0001A6010BD2260FAE71C46002AF9D0134678
:1060D000F0E738B5FFF7EAFF00230B600546FFF74E
:1060E000DDFF08B9296038BD0160FCE738B5FFF76E
:1060F000DDFF03680B60016038BD0368002003B951
:1061000070471B680130FAE700B10068704710B5AE
:106110000446428800214068FFF766FE23886288B3
:10612000A0680021BDE810405A43FFF75DBE002380
:1061300010B54188994201DC002009E04268D4187A
:10614000D25C32B9012222700288806803FB02000F
:1061500010BD0133EEE7002330B5826844889C42CD
:1061600001DCFF2008E08A4207D14168CA5C0AB11D
:10617000013ACA544268D05C30BD058801332A44D4
:10618000EDE783688B4208D84288008800FB023024
:1061900081422CBF0020012070470020704700235F
:1061A000013A0160027143718371704710B5427901
:1061B00083790479D31A34EA030308D00368995425
:1061C00043790279013313404371012010BD00204F
:1061D000FCE7837942790179D21A0A421FBF02682B
:1061E000D25C01330B401ABF837110464FF0FF3071
:1061F0007047831C002013F8022C023302B9704749
:1062000013F8032C1044F6E7072B2DE9F843064654
:106210000F4615461C4607DC1A4629463846FEF747
:1062200065FB3070BDE8F8834FEAE3087AB97B5D1F
:10623000735501354545FADB14F00702F2D0002111
:1062400007EB0800FEF752FB06F80800EAE74FF0FC
:10625000000907EB090008222946FEF747FB06F86C
:10626000090009F10109C145F3DB14F00702D9D097
:106270002946E5E72DE9F743FEF758FD04460220DD
:10628000FEF700FD20B90025284603B0BDE8F083E5
:106290006378207800EB032080B2FEF745FC0546CA
:1062A0000028F0D0FEF742FD0746287B10F00703D8
:1062B00018BF012303EBD000FEF7E4FC0028E2D076
:1062C0000026B146AC68023414F8023C002BDBD047
:1062D000192B14F8018C07EBE60106F007020BD925
:1062E00001A84346FFF790FF14F8020C01A9FEF73E
:1062F000E5FD46440234E7E701A84346ADF80490C3
:10630000FFF782FFBDF8041014F8020CFEF7C8FD79
:10631000EFE7072B2DE9F0410FDC1478C1F11001F4
:10632000CB1A04FA03F30178C3F307220A43417836
:1063300002700B434370BDE8F081DC10C9B9555CB5
:1063400045540131A142FADB13F00703F3D0125D8B
:10635000C3F108052A41C3F11003055D02FA03F3F6
:10636000C3F307222A43011902554A7813434B709D
:10637000E1E705460026C1F1080E975D95F800C0DB
:1063800007FA0EF7C7F307284CEA080C05F801CB0B
:1063900095F800C001364CEA0707A6422F70ECDBE7
:1063A00013F00703C7D0125DC3F1080631440A4158
:1063B000D2B2C3F11003015D02FA03F3C3F3072263
:1063C0000A43051902556A7813436B70B3E72DE948
:1063D000F743057B044615F0070218BF012202EBC4
:1063E000D505A81CFEF7D4FCA8B1FEF765FCA38870
:1063F0000370A3881B0A4370FEF75EFC2A46002543
:10640000861C00213046FFF7EFFCA468023414F824
:10641000020C18B9012003B0BDE8F083192814F864
:10642000017C06EBE50805F007090AD9FEF752FDE5
:106430003B46024649464046FFF76BFF3D44023467
:10644000E5E7FEF735FD8DF80400000A3B468DF8C0
:10645000050001AAEEE710B5FEF7B6FBFEF7D2FC89
:10646000FEF782FB00F03CF8BDE810404FF4E1235A
:106470004FF4F0524FF400710220FEF7EBBA704770
:10648000F8B50E46FEF752FC07880446FEF718FCE6
:10649000BB000233834203D800250234AF4200DC44
:1064A000F8BD54F8041B30460A0C89B2FEF76EFBA7
:1064B0000135F3E743695B6803B11847704713B5CB
:1064C00004461A20FEF706FD014601A800F049F82F
:1064D00063691B6813B1204601A9984702B010BD3B
:1064E000FEF714BB38B50D46FEF71EFB044620B17F
:1064F00085602846FEF704FB207338BDFEF73ABAE4
:1065000003691B6803B11847704703695B6803B1EF
:10651000184770470EF00F000D2808BF00F00EB8A6
:1065200000982DE9F04F00F1240181F3098890E8EB
:10653000F08F0EF00F000D2818BF7047EFF30980A1
:1065400020E9F04F0990BDE8F08F006800F1B60136
:106550008230FEF77DBC036803EB4103B3F8820091
:1065600070470B8803807047022208B5FFF792FB43
:10657000B0FA80F0400908BD30B591B0FEF7D6FB07
:106580000446FEF79DFB6A4601462046FEF7CAFD1B
:10659000044620B94FF0FF34204611B030BDFEF75D
:1065A00071FB0028F6D014209DF81010FEF778FC3F
:1065B0009DF81730ABB1BDF81C50FEF7ADFD85421C
:1065C00005D04FF6FF73BDF81C209A42E2D1694610
:1065D0009DF8170000F0C0F818B969461B20FEF7B7
:1065E0006DFC02A91A20FEF769FC13209DF8121019
:1065F000FEF756FC9DF8153053B99DF81A100A2085
:10660000FEF74EFC9DF81A100E20FEF749FCC3E77A
:106610004FF6FF71F3E70020FEF7E6BC0120FEF71E
:10662000E3BC30B530B3037A022B2CD1C579437A61
:1066300004792DB9002B4AD1012C48D1204615E010
:1066400053EA04001DD0032D2FD1032B2FD1B4FA10
:1066500084F04009002309E0181E18BF0120002C17
:10666000F8D1023B012B8CBF0023012301B10B6049
:1066700002B1106030BD023B012B8CBF002301230F
:10668000DCE701201BE00378022B22D0037953B909
:10669000437A13F0030318BF0123C07910F00300FD
:1066A00018BF0120E2E70023F7E7022DD4D0A3F1C1
:1066B000020CDCF1000040EB0C00002CCAD1022DD2
:1066C000CFD0032DC6D19C1E63426341CEE7002C80
:1066D000D1D000200346C9E7002337B50B608B807B
:1066E000437D0D46D9075CBF01232B70037E044612
:1066F000012B0BD8C37D9A072CD0437E9B0729D052
:10670000C28B838B9A4225D101232375694601AA46
:1067100004F11000FFF785FF009B0BB10223EB7023
:10672000019B0BB102236B70E37D03F00303022B8B
:1067300003D0032B14BF00230823AB70637E03F048
:106740000303022B03D0032B14BF002308232B7158
:1067500003B030BD0023D8E702280CBF0223082372
:106760000B448B4201D10120704713F8012DFF2A01
:10677000F7D00020704707B56946FFF7ADFF9DF8D9
:1067800000309DF80100023303449DF802000344E9
:106790009DF8030003449DF8040003449DF80500A0
:1067A000184403B05DF804FB43788278DB001201E3
:1067B00002F0100203F008031343027802F007020C
:1067C0001343C278520102F020021343027992016E
:1067D00002F0400213430B704379427A03F0010345
:1067E00043EA82138279520002F002021343C27913
:1067F000920002F00C021343027A120102F03002FE
:1068000013434B70704737B504460D466946FFF792
:1068100063FF294604F11000FFF7C6FF9DF8003022
:106820009DF80120012B09BFA37E0223AB70032337
:10683000022A08D1A18B5A1CE954A18BD2B202338F
:10684000090ADBB2A9549DF802201344DBB2991A5D
:10685000C9B2B2B99DF80320022A08D1E18B5A1CB3
:10686000E954E18BD2B20233090ADBB2A9549DF894
:10687000042008341344D8B2831ADBB22AB903B017
:1068800030BD013AA05C6854E1E7013AA15CE954EB
:10689000F2E70278437802F007000870C2F3C00004
:1068A0004870C2F300108870C2F34010C2F3801227
:1068B0000A7103F001024A71C3F340028A71C3F303
:1068C0008102CA71C3F301129B09C8700A724B722C
:1068D000704710B40446084611461A4614B12346C0
:1068E00010BC184710BC704700207047FEF76CBE04
:1068F00070B504460D4602B970BDD2E90060FEF7DE
:10690000A9F929462046FEF765FE0028F4D0324654
:10691000F1E7FEF75FBE7047646B2000852420001E
:10692000E124200000000000010000000100000040
:106930000100000000C0004000410D4000000000C8
:10694000080000002C00000000000001FFFFFFFF16
:10695000050000000200000002000000020000002C
:1069600000D0004008410D40020000000800000077
:106970002C00000002010200FFFFFFFF06000000E4
:10698000FF6B2000036C2000126C2000166C2000AE
:1069900021342000E93120004D322000375F2000F3
:1069A00025332000CD302000112E2000292E20007C
:1069B000092F2000D12D2000812F2000013120003F
:1069C00081352000F532200007000000FF000000A4
:1069D00005000000ED00000003000000D5000000ED
:1069E00001000000C500000000000000B60000002B
:1069F000FFFFFFFFB0000000FDFFFFFFA100000050
:106A0000FBFFFFFF91000000F9FFFFFF880000007F
:106A1000F7FFFFFF72000000F5FFFFFF62000000BC
:106A2000F3FFFFFF58000000F1FFFFFF42000000EE
:106A3000E8FFFFFF000000003D6C20009F5F20008A
:106A4000975F20009B5F2000516C2000DB5F2000DF
:106A5000D35F2000D75F200075622000CF63200045
:106A6000F3612000E56C20005764200041492000BC
:106A7000816420007F642000BF642000B564200092
:106A8000176620001D66200079652000F06C20004C
:106A90001D542000D1522000515220005D52200090
:106AA0006952200075522000F56C2000ED6820002E
:106AB00013692000F168200001572000C95520000B
:106AC000E9562000E9682000555720009D57200016
:106AD00065572000FD6C2000176920001558200024
:106AE00009582000EC000020000000000000436F67
:106AF0006E74696B692D3731333736383563320040
:106B00005A6F6C65727469612052452D4D6F7465C2
:106B1000207265766973696F6E204220706C6174B3
:106B2000666F726D0052696D6520636F6E6669678E
:106B30007572656420776974682061646472657336
:106B4000732000253032783A00253032780A002050
:106B50004E65743A2000204D41433A2000205244B3
:106B6000433A2000427574746F6E004343323533EC
:106B7000383A2049443A2030782530346C782C203B
:106B80007265762E3A20504725642E25642C2046C7
:106B90006C6173683A20256C75204B69422C205338
:106BA00052414D3A20256C75204B69422C204145BD
:106BB000532F5348413A2025752C204543432F52EB
:106BC00053413A2025750A53797374656D20636CBF
:106BD0006F636B3A20256C7520487A0A492F4F2045
:106BE000636C6F636B3A20256C7520487A0A526596
:106BF0007365742063617573653A2025730A0050CC
:106C00004F520045787465726E616C2072657365D1
:106C1000740057445400434C44206F7220736F66D5
:106C200074776172652072657365740063633235D1
:106C3000333820524620647269766572004F6E2D9B
:106C4000436869702054656D706572617475726512
:106C50000056444433003031323334353637383916
:106C600041424344454600303132333435363738BB
:106C700039616263646566003058003078002D0029
:106C80002B00286E756C6C29002500202020202008
:106C900020202020202020202020203030303030A4
:106CA00030303030303030303030304374696D65E2
:106CB000722070726F63657373004576656E742021
:106CC00074696D65720053657269616C20647269E4
:106CD0007665720053656E736F7273000080C0E05A
:106CE000F0F8FCFEFF52696D65001A10000000000C
:106CF00043534D41006E756C6C726463006E756C2D
:106D00006C736563004E65696768626F72205461D9
:106D1000626C653A0A0D004E65696768626F723A87
:106D20002025783A25780A0D007969707065650A22
:106D30000D006F6C64206E65696768626F720A0D82
:106D4000006E6577206E65696768626F720A0D0074
:106D50004E6574776F726B20446973636F766572EA
:026D60007900B8
:106D6400486A200018692000386A200000000000EA
:106D7400000000002C6C2000F13420000000000012
:106D8400056020000000000000000000AB6C200043
:106D94002D4120000000000000000000BA6C20001B
:106DA400A14220000000000000000000C66C20008A
:106DB4004D4620000000000000000000D46C2000BC
:106DC400514720000000000004000800280E0020A5
:106DD40014040020BE000800300E0020C806002065
:106DE4000C0008003C0E0020740500203400020052
:106DF400440E0020D80500200C000800460E002098
:106E040040060020E95820000000000000000000B7
:106E1400506D20005558200000000000CDAB1A0131
:086E240098EBFF7F0100000064
:020000040027D3
:10FFD400FFFFFFF30000000000202000FFFFFFFFF1
:10FFE400FFFFFFFFFFFFFFFFFFFFFFFFFFFFFFFF1D
:0CFFF400FFFFFFFFFFFFFFFFFFFFFFFF0D
:040000050027FFD4FD
:00000001FF
